{
  "contractName": "Document",
  "abi": [
    {
      "constant": true,
      "inputs": [],
      "name": "docString",
      "outputs": [
        {
          "name": "",
          "type": "string"
        }
      ],
      "payable": false,
      "stateMutability": "view",
      "type": "function"
    },
    {
      "constant": true,
      "inputs": [
        {
          "name": "",
          "type": "uint256"
        }
      ],
      "name": "docArray",
      "outputs": [
        {
          "name": "",
          "type": "string"
        }
      ],
      "payable": false,
      "stateMutability": "view",
      "type": "function"
    },
    {
      "inputs": [],
      "payable": false,
      "stateMutability": "nonpayable",
      "type": "constructor"
    },
    {
      "anonymous": false,
      "inputs": [
        {
          "indexed": false,
          "name": "id",
          "type": "uint256"
        }
      ],
      "name": "DocumentArray",
      "type": "event"
    },
    {
      "anonymous": false,
      "inputs": [],
      "name": "DocumentTransaction",
      "type": "event"
    },
    {
      "anonymous": false,
      "inputs": [
        {
          "indexed": false,
          "name": "content",
          "type": "string"
        }
      ],
      "name": "DocumentEvent",
      "type": "event"
    },
    {
      "constant": false,
      "inputs": [],
      "name": "inTransaction",
      "outputs": [],
      "payable": false,
      "stateMutability": "nonpayable",
      "type": "function"
    },
    {
      "constant": false,
      "inputs": [
        {
          "name": "content",
          "type": "string"
        }
      ],
      "name": "inArray",
      "outputs": [],
      "payable": false,
      "stateMutability": "nonpayable",
      "type": "function"
    },
    {
      "constant": false,
      "inputs": [
        {
          "name": "content",
          "type": "string"
        }
      ],
      "name": "inEvent",
      "outputs": [],
      "payable": false,
      "stateMutability": "nonpayable",
      "type": "function"
    },
    {
      "constant": false,
      "inputs": [
        {
          "name": "content",
          "type": "string"
        }
      ],
      "name": "inString",
      "outputs": [],
      "payable": false,
      "stateMutability": "nonpayable",
      "type": "function"
    }
  ],
  "bytecode": "0x608060405234801561001057600080fd5b506105c0806100206000396000f300608060405260043610610078576000357c0100000000000000000000000000000000000000000000000000000000900463ffffffff16806377fe26541461007d5780638343aca8146100b8578063c992c2c9146100cf578063dec67e001461010a578063fdcbc94d1461019a578063fdd77a7f14610240575b600080fd5b34801561008957600080fd5b506100b660048036038101908080359060200190820180359060200191909192939192939050505061027b565b005b3480156100c457600080fd5b506100cd610291565b005b3480156100db57600080fd5b506101086004803603810190808035906020019082018035906020019190919293919293905050506102bf565b005b34801561011657600080fd5b5061011f610314565b6040518080602001828103825283818151815260200191508051906020019080838360005b8381101561015f578082015181840152602081019050610144565b50505050905090810190601f16801561018c5780820380516001836020036101000a031916815260200191505b509250505060405180910390f35b3480156101a657600080fd5b506101c5600480360381019080803590602001909291905050506103b2565b6040518080602001828103825283818151815260200191508051906020019080838360005b838110156102055780820151818401526020810190506101ea565b50505050905090810190601f1680156102325780820380516001836020036101000a031916815260200191505b509250505060405180910390f35b34801561024c57600080fd5b5061027960048036038101908080359060200190820180359060200191909192939192939050505061046d565b005b81816001919061028c9291906104ef565b505050565b7f777ccea27225adea1b84d7f3f65b1e56a3da261b2794f85dce005c41efe06e7f60405160405180910390a1565b7f8057be5ed5a8dd54a38b1f46c717a58969afdc7fa63f404cc9014f7ff301d84e8282604051808060200182810382528484828181526020019250808284378201915050935050505060405180910390a15050565b60018054600181600116156101000203166002900480601f0160208091040260200160405190810160405280929190818152602001828054600181600116156101000203166002900480156103aa5780601f1061037f576101008083540402835291602001916103aa565b820191906000526020600020905b81548152906001019060200180831161038d57829003601f168201915b505050505081565b6000818154811015156103c157fe5b906000526020600020016000915090508054600181600116156101000203166002900480601f0160208091040260200160405190810160405280929190818152602001828054600181600116156101000203166002900480156104655780601f1061043a57610100808354040283529160200191610465565b820191906000526020600020905b81548152906001019060200180831161044857829003601f168201915b505050505081565b7fd7e0f0024b5fb9fa41dccaf379244266e42f0a65cd1bafc93b7e8cebcb0aeacb6000805490506040518082815260200191505060405180910390a160008282909180600181540180825580915050906001820390600052602060002001600090919293909192939091929091925091906104e99291906104ef565b50505050565b828054600181600116156101000203166002900490600052602060002090601f016020900481019282601f1061053057803560ff191683800117855561055e565b8280016001018555821561055e579182015b8281111561055d578235825591602001919060010190610542565b5b50905061056b919061056f565b5090565b61059191905b8082111561058d576000816000905550600101610575565b5090565b905600a165627a7a723058200a675055e12b94247b1f6e0cb5cc0a8d4c33e3d850d09135137ced6467e1b5dc0029",
  "source": "/*\n * Copyright 2019 VMware, all rights reserved.\n * This software is released under MIT license.\n * The full license information can be found in LICENSE in the root directory of this project.\n */\n\npragma solidity >=0.4.21 <0.6.0;\n\n/**\n * @title Document\n */\ncontract Document {\n  event DocumentArray(uint id);\n  event DocumentTransaction();\n  event DocumentEvent(string content);\n\n  string[] public docArray;\n  string public docString;\n\n  constructor() public {}\n\n  function inTransaction() external {\n    emit DocumentTransaction();\n  }\n\n  function inArray(string content) external  {\n    emit DocumentArray(docArray.length);\n    docArray.push(content);\n  }\n\n  function inEvent(string content) external {\n    emit DocumentEvent(content);\n  }\n\n  function inString(string content) external {\n    docString = content;\n  }\n\n}\n",
  "sourcePath": "/app/contracts/Document.sol",
  "compiler": {
    "name": "solc",
    "version": "0.4.24+commit.e67f0147.Emscripten.clang"
  },
  "schemaVersion": "3.3.2",
  "updatedAt": "2020-12-17T21:02:12.061Z",
  "devdoc": {
    "methods": {},
    "title": "Document"
  },
  "userdoc": {
    "methods": {}
  }
}