{
  "contractName": "OrderAccessControl",
  "abi": [
    {
      "constant": true,
      "inputs": [],
      "name": "supermarket",
      "outputs": [
        {
          "name": "",
          "type": "address"
        }
      ],
      "payable": false,
      "stateMutability": "view",
      "type": "function"
    },
    {
      "constant": true,
      "inputs": [],
      "name": "contractCreator",
      "outputs": [
        {
          "name": "",
          "type": "address"
        }
      ],
      "payable": false,
      "stateMutability": "view",
      "type": "function"
    },
    {
      "constant": true,
      "inputs": [],
      "name": "auditor",
      "outputs": [
        {
          "name": "",
          "type": "address"
        }
      ],
      "payable": false,
      "stateMutability": "view",
      "type": "function"
    },
    {
      "constant": true,
      "inputs": [],
      "name": "paused",
      "outputs": [
        {
          "name": "",
          "type": "bool"
        }
      ],
      "payable": false,
      "stateMutability": "view",
      "type": "function"
    },
    {
      "constant": true,
      "inputs": [],
      "name": "warehouse",
      "outputs": [
        {
          "name": "",
          "type": "address"
        }
      ],
      "payable": false,
      "stateMutability": "view",
      "type": "function"
    },
    {
      "constant": true,
      "inputs": [],
      "name": "distributor",
      "outputs": [
        {
          "name": "",
          "type": "address"
        }
      ],
      "payable": false,
      "stateMutability": "view",
      "type": "function"
    },
    {
      "constant": true,
      "inputs": [],
      "name": "farmer",
      "outputs": [
        {
          "name": "",
          "type": "address"
        }
      ],
      "payable": false,
      "stateMutability": "view",
      "type": "function"
    },
    {
      "constant": false,
      "inputs": [
        {
          "name": "_supermarket",
          "type": "address"
        },
        {
          "name": "_farmer",
          "type": "address"
        },
        {
          "name": "_auditor",
          "type": "address"
        },
        {
          "name": "_warehouse",
          "type": "address"
        },
        {
          "name": "_distributor",
          "type": "address"
        }
      ],
      "name": "setOwners",
      "outputs": [],
      "payable": false,
      "stateMutability": "nonpayable",
      "type": "function"
    },
    {
      "constant": false,
      "inputs": [],
      "name": "pause",
      "outputs": [],
      "payable": false,
      "stateMutability": "nonpayable",
      "type": "function"
    },
    {
      "constant": false,
      "inputs": [],
      "name": "unpause",
      "outputs": [],
      "payable": false,
      "stateMutability": "nonpayable",
      "type": "function"
    }
  ],
  "bytecode": "0x60806040526000600560146101000a81548160ff02191690831515021790555034801561002b57600080fd5b50610ce08061003b6000396000f3006080604052600436106100a4576000357c0100000000000000000000000000000000000000000000000000000000900463ffffffff16806303b2e373146100a9578063072b7888146101005780631e2f73b1146101c35780633ec045a61461021a5780633f4ba83a146102715780635c975abb146102885780638456cb59146102b75780639b622769146102ce578063bfe1092814610325578063d811fcf01461037c575b600080fd5b3480156100b557600080fd5b506100be6103d3565b604051808273ffffffffffffffffffffffffffffffffffffffff1673ffffffffffffffffffffffffffffffffffffffff16815260200191505060405180910390f35b34801561010c57600080fd5b506101c1600480360381019080803573ffffffffffffffffffffffffffffffffffffffff169060200190929190803573ffffffffffffffffffffffffffffffffffffffff169060200190929190803573ffffffffffffffffffffffffffffffffffffffff169060200190929190803573ffffffffffffffffffffffffffffffffffffffff169060200190929190803573ffffffffffffffffffffffffffffffffffffffff1690602001909291905050506103f9565b005b3480156101cf57600080fd5b506101d861062f565b604051808273ffffffffffffffffffffffffffffffffffffffff1673ffffffffffffffffffffffffffffffffffffffff16815260200191505060405180910390f35b34801561022657600080fd5b5061022f610654565b604051808273ffffffffffffffffffffffffffffffffffffffff1673ffffffffffffffffffffffffffffffffffffffff16815260200191505060405180910390f35b34801561027d57600080fd5b5061028661067a565b005b34801561029457600080fd5b5061029d610954565b604051808215151515815260200191505060405180910390f35b3480156102c357600080fd5b506102cc610967565b005b3480156102da57600080fd5b506102e3610c42565b604051808273ffffffffffffffffffffffffffffffffffffffff1673ffffffffffffffffffffffffffffffffffffffff16815260200191505060405180910390f35b34801561033157600080fd5b5061033a610c68565b604051808273ffffffffffffffffffffffffffffffffffffffff1673ffffffffffffffffffffffffffffffffffffffff16815260200191505060405180910390f35b34801561038857600080fd5b50610391610c8e565b604051808273ffffffffffffffffffffffffffffffffffffffff1673ffffffffffffffffffffffffffffffffffffffff16815260200191505060405180910390f35b600160009054906101000a900473ffffffffffffffffffffffffffffffffffffffff1681565b6000809054906101000a900473ffffffffffffffffffffffffffffffffffffffff1673ffffffffffffffffffffffffffffffffffffffff163373ffffffffffffffffffffffffffffffffffffffff161415156104e3576040517f08c379a00000000000000000000000000000000000000000000000000000000081526004018080602001828103825260258152602001807f4f6e6c792074686520636f6e74726163742063726561746f722068617320616381526020017f636573732e00000000000000000000000000000000000000000000000000000081525060400191505060405180910390fd5b84600160006101000a81548173ffffffffffffffffffffffffffffffffffffffff021916908373ffffffffffffffffffffffffffffffffffffffff16021790555083600260006101000a81548173ffffffffffffffffffffffffffffffffffffffff021916908373ffffffffffffffffffffffffffffffffffffffff16021790555082600360006101000a81548173ffffffffffffffffffffffffffffffffffffffff021916908373ffffffffffffffffffffffffffffffffffffffff16021790555081600460006101000a81548173ffffffffffffffffffffffffffffffffffffffff021916908373ffffffffffffffffffffffffffffffffffffffff16021790555080600560006101000a81548173ffffffffffffffffffffffffffffffffffffffff021916908373ffffffffffffffffffffffffffffffffffffffff1602179055505050505050565b6000809054906101000a900473ffffffffffffffffffffffffffffffffffffffff1681565b600360009054906101000a900473ffffffffffffffffffffffffffffffffffffffff1681565b6000809054906101000a900473ffffffffffffffffffffffffffffffffffffffff1673ffffffffffffffffffffffffffffffffffffffff163373ffffffffffffffffffffffffffffffffffffffff1614806107225750600160009054906101000a900473ffffffffffffffffffffffffffffffffffffffff1673ffffffffffffffffffffffffffffffffffffffff163373ffffffffffffffffffffffffffffffffffffffff16145b8061077a5750600260009054906101000a900473ffffffffffffffffffffffffffffffffffffffff1673ffffffffffffffffffffffffffffffffffffffff163373ffffffffffffffffffffffffffffffffffffffff16145b806107d25750600360009054906101000a900473ffffffffffffffffffffffffffffffffffffffff1673ffffffffffffffffffffffffffffffffffffffff163373ffffffffffffffffffffffffffffffffffffffff16145b8061082a5750600460009054906101000a900473ffffffffffffffffffffffffffffffffffffffff1673ffffffffffffffffffffffffffffffffffffffff163373ffffffffffffffffffffffffffffffffffffffff16145b806108825750600560009054906101000a900473ffffffffffffffffffffffffffffffffffffffff1673ffffffffffffffffffffffffffffffffffffffff163373ffffffffffffffffffffffffffffffffffffffff16145b151561091c576040517f08c379a00000000000000000000000000000000000000000000000000000000081526004018080602001828103825260258152602001807f4f6e6c792074686520636f6e7472616374206f776e657273206861766520616381526020017f636573732e00000000000000000000000000000000000000000000000000000081525060400191505060405180910390fd5b600560149054906101000a900460ff16151561093757600080fd5b6000600560146101000a81548160ff021916908315150217905550565b600560149054906101000a900460ff1681565b6000809054906101000a900473ffffffffffffffffffffffffffffffffffffffff1673ffffffffffffffffffffffffffffffffffffffff163373ffffffffffffffffffffffffffffffffffffffff161480610a0f5750600160009054906101000a900473ffffffffffffffffffffffffffffffffffffffff1673ffffffffffffffffffffffffffffffffffffffff163373ffffffffffffffffffffffffffffffffffffffff16145b80610a675750600260009054906101000a900473ffffffffffffffffffffffffffffffffffffffff1673ffffffffffffffffffffffffffffffffffffffff163373ffffffffffffffffffffffffffffffffffffffff16145b80610abf5750600360009054906101000a900473ffffffffffffffffffffffffffffffffffffffff1673ffffffffffffffffffffffffffffffffffffffff163373ffffffffffffffffffffffffffffffffffffffff16145b80610b175750600460009054906101000a900473ffffffffffffffffffffffffffffffffffffffff1673ffffffffffffffffffffffffffffffffffffffff163373ffffffffffffffffffffffffffffffffffffffff16145b80610b6f5750600560009054906101000a900473ffffffffffffffffffffffffffffffffffffffff1673ffffffffffffffffffffffffffffffffffffffff163373ffffffffffffffffffffffffffffffffffffffff16145b1515610c09576040517f08c379a00000000000000000000000000000000000000000000000000000000081526004018080602001828103825260258152602001807f4f6e6c792074686520636f6e7472616374206f776e657273206861766520616381526020017f636573732e00000000000000000000000000000000000000000000000000000081525060400191505060405180910390fd5b600560149054906101000a900460ff16151515610c2557600080fd5b6001600560146101000a81548160ff021916908315150217905550565b600460009054906101000a900473ffffffffffffffffffffffffffffffffffffffff1681565b600560009054906101000a900473ffffffffffffffffffffffffffffffffffffffff1681565b600260009054906101000a900473ffffffffffffffffffffffffffffffffffffffff16815600a165627a7a723058209dc6ba60df5f100dc224f950673fe95d08c4411ac8baa0eb4e0a7afe00ff62730029",
  "source": "/*\n * Copyright 2019 VMware, all rights reserved.\n * This software is released under MIT license.\n * The full license information can be found in LICENSE in the root directory of this project.\n */\n\npragma solidity >=0.4.21 <0.6.0;\n\n/**\n * @title Access control for an order\n */\ncontract OrderAccessControl {\n  address public contractCreator;\n  address public supermarket;\n  address public farmer;\n  address public auditor;\n  address public warehouse;\n  address public distributor;\n\n\n  // @dev Keeps track whether the contract is paused.\n  bool public paused = false;\n\n  /// @dev Access modifier for Farmer-only functionality\n  modifier onlyContractCreator() {\n    require(\n      msg.sender == contractCreator,\n      \"Only the contract creator has access.\"\n    );\n    _;\n  }\n\n  /// @dev Access modifier for Farmer-only functionality\n  modifier onlySupermarket() {\n    require(\n      msg.sender == supermarket,\n      \"Only the Super Market has access.\"\n    );\n    _;\n  }\n\n  /// @dev Access modifier for Farmer-only functionality\n  modifier onlyFarmer() {\n    require(\n      msg.sender == farmer,\n      \"Only the Farmer has access.\"\n    );\n    _;\n  }\n\n  /// @dev Access modifier for Auditor-only functionality\n  modifier onlyAuditor() {\n    require(\n      msg.sender == auditor,\n      \"Only the Auditor has access.\"\n    );\n    _;\n  }\n\n  /// @dev Access modifier for Warehouse-only functionality\n  modifier onlyWarehouse() {\n    require(\n      msg.sender == warehouse,\n      \"Only the Warehouse has access.\"\n    );\n    _;\n  }\n\n  /// @dev Access modifier for Distributor-only functionality\n  modifier onlyDistributor() {\n    require(\n      msg.sender == distributor,\n      \"Only the Distributor has access.\"\n    );\n    _;\n  }\n\n  modifier onlyFarmerOrAuditor() {\n    require(\n      msg.sender == farmer ||\n      msg.sender == auditor,\n      \"Only the Farmer and Auditor have access.\"\n    );\n    _;\n  }\n\n  modifier onlyContractOwners() {\n    require(\n      msg.sender == contractCreator ||\n      msg.sender == supermarket ||\n      msg.sender == farmer ||\n      msg.sender == auditor ||\n      msg.sender == warehouse ||\n      msg.sender == distributor,\n      \"Only the contract owners have access.\"\n    );\n    _;\n  }\n\n  /// @dev Assigns a address to contract owners. Only available to the current creator.\n  /// @param _supermarket _farmer _auditor _warehouse _distributor addresses of contract owners\n  function setOwners(\n    address _supermarket,\n    address _farmer,\n    address _auditor,\n    address _warehouse,\n    address _distributor\n  ) external onlyContractCreator {\n    supermarket = _supermarket;\n    farmer = _farmer;\n    auditor = _auditor;\n    warehouse = _warehouse;\n    distributor = _distributor;\n  }\n\n  /*** Pausable functionality adapted from OpenZeppelin ***/\n\n  /// @dev Modifier to allow actions only when the contract IS NOT paused\n  modifier whenNotPaused() {\n      require(!paused);\n      _;\n  }\n\n  /// @dev Modifier to allow actions only when the contract IS paused\n  modifier whenPaused {\n      require(paused);\n      _;\n  }\n\n  /// @dev Called by any contract owner role to pause the contract. Used only when\n  ///  a bug or exploit is detected and we need to limit damage.\n  function pause() external onlyContractOwners whenNotPaused {\n      paused = true;\n  }\n\n  /// @dev Unpauses the smart contract.\n  function unpause() public onlyContractOwners whenPaused {\n      // can't unpause if contract was upgraded\n      paused = false;\n  }\n}\n",
  "sourcePath": "/app/contracts/OrderAccessControl.sol",
  "compiler": {
    "name": "solc",
    "version": "0.4.24+commit.e67f0147.Emscripten.clang"
  },
  "schemaVersion": "3.3.2",
  "updatedAt": "2020-12-17T21:02:12.071Z",
  "devdoc": {
    "methods": {
      "pause()": {
        "details": "Called by any contract owner role to pause the contract. Used only when  a bug or exploit is detected and we need to limit damage."
      },
      "setOwners(address,address,address,address,address)": {
        "details": "Assigns a address to contract owners. Only available to the current creator.",
        "params": {
          "_supermarket": "_farmer _auditor _warehouse _distributor addresses of contract owners"
        }
      },
      "unpause()": {
        "details": "Unpauses the smart contract."
      }
    },
    "title": "Access control for an order"
  },
  "userdoc": {
    "methods": {}
  }
}