{
  "contractName": "OrdersV2",
  "abi": [
    {
      "constant": true,
      "inputs": [
        {
          "name": "",
          "type": "uint256"
        }
      ],
      "name": "orders",
      "outputs": [
        {
          "name": "",
          "type": "address"
        }
      ],
      "payable": false,
      "stateMutability": "view",
      "type": "function"
    },
    {
      "constant": true,
      "inputs": [],
      "name": "getAmount",
      "outputs": [
        {
          "name": "",
          "type": "uint256"
        }
      ],
      "payable": false,
      "stateMutability": "view",
      "type": "function"
    },
    {
      "inputs": [],
      "payable": false,
      "stateMutability": "nonpayable",
      "type": "constructor"
    },
    {
      "constant": false,
      "inputs": [
        {
          "name": "product",
          "type": "bytes32"
        },
        {
          "name": "amount",
          "type": "uint256"
        }
      ],
      "name": "create",
      "outputs": [
        {
          "name": "",
          "type": "address"
        }
      ],
      "payable": true,
      "stateMutability": "payable",
      "type": "function"
    },
    {
      "constant": true,
      "inputs": [],
      "name": "getVersion",
      "outputs": [
        {
          "name": "",
          "type": "string"
        }
      ],
      "payable": false,
      "stateMutability": "pure",
      "type": "function"
    }
  ],
  "bytecode": "0x608060405234801561001057600080fd5b506135c6806100206000396000f300608060405260043610610062576000357c0100000000000000000000000000000000000000000000000000000000900463ffffffff1680630d8e6e2c14610067578063a042c132146100f7578063a85c38ef14610165578063d321fe29146101d2575b600080fd5b34801561007357600080fd5b5061007c6101fd565b6040518080602001828103825283818151815260200191508051906020019080838360005b838110156100bc5780820151818401526020810190506100a1565b50505050905090810190601f1680156100e95780820380516001836020036101000a031916815260200191505b509250505060405180910390f35b61012360048036038101908080356000191690602001909291908035906020019092919050505061023a565b604051808273ffffffffffffffffffffffffffffffffffffffff1673ffffffffffffffffffffffffffffffffffffffff16815260200191505060405180910390f35b34801561017157600080fd5b5061019060048036038101908080359060200190929190505050610323565b604051808273ffffffffffffffffffffffffffffffffffffffff1673ffffffffffffffffffffffffffffffffffffffff16815260200191505060405180910390f35b3480156101de57600080fd5b506101e7610361565b6040518082815260200191505060405180910390f35b60606040805190810160405280600381526020017f322e300000000000000000000000000000000000000000000000000000000000815250905090565b60008083833361024861036d565b8084600019166000191681526020018381526020018273ffffffffffffffffffffffffffffffffffffffff1673ffffffffffffffffffffffffffffffffffffffff1681526020019350505050604051809103906000f0801580156102b0573d6000803e3d6000fd5b50905060008190806001815401808255809150509060018203906000526020600020016000909192909190916101000a81548173ffffffffffffffffffffffffffffffffffffffff021916908373ffffffffffffffffffffffffffffffffffffffff160217905550508091505092915050565b60008181548110151561033257fe5b906000526020600020016000915054906101000a900473ffffffffffffffffffffffffffffffffffffffff1681565b60008080549050905090565b60405161321d8061037e83390190560060806040526000600560146101000a81548160ff02191690831515021790555034801561002b57600080fd5b5060405160608061321d833981018060405281019080805190602001909291908051906020019092919080519060200190929190505050828282806000806101000a81548173ffffffffffffffffffffffffffffffffffffffff021916908373ffffffffffffffffffffffffffffffffffffffff1602179055508260066000018160001916905550816006600101819055506000600660020160006101000a81548160ff0219169083151502179055506000600c60006101000a81548160ff0219169083600e8111156100fa57fe5b02179055506000600c60016101000a81548160ff0219169083600281111561011e57fe5b02179055505050505050506130e5806101386000396000f3006080604052600436106101ac576000357c0100000000000000000000000000000000000000000000000000000000900463ffffffff16806301c195eb146101b1578063029ee155146101c857806303b2e373146101df578063072b7888146102365780630df5780c146102f957806311d72e471461031057806312424e3f146103275780631e2f73b11461033e5780632828dbe9146103955780633c37a048146103ac5780633ec045a6146103d75780633f4ba83a1461042e5780634c7be560146104455780635478f468146104845780635c975abb146104af5780635e10177b146104de57806377684862146104f557806380a20296146105385780638456cb591461054f57806394c23ffd1461056657806395b6f31a146105f15780639b622769146106485780639d6aed0b1461069f578063a7a38f0b1461072f578063b6549f75146107be578063bc779a6f146107d5578063bde9e40e1461080e578063be9f5beb14610825578063bfe109281461083c578063c19d93fb14610893578063c885044e146108cc578063d811fcf014610911578063efb37a3914610968578063f1ab1aa61461097f575b600080fd5b3480156101bd57600080fd5b506101c6610996565b005b3480156101d457600080fd5b506101dd610b49565b005b3480156101eb57600080fd5b506101f4610cfc565b604051808273ffffffffffffffffffffffffffffffffffffffff1673ffffffffffffffffffffffffffffffffffffffff16815260200191505060405180910390f35b34801561024257600080fd5b506102f7600480360381019080803573ffffffffffffffffffffffffffffffffffffffff169060200190929190803573ffffffffffffffffffffffffffffffffffffffff169060200190929190803573ffffffffffffffffffffffffffffffffffffffff169060200190929190803573ffffffffffffffffffffffffffffffffffffffff169060200190929190803573ffffffffffffffffffffffffffffffffffffffff169060200190929190505050610d22565b005b34801561030557600080fd5b5061030e610f58565b005b34801561031c57600080fd5b5061032561110b565b005b34801561033357600080fd5b5061033c6112e4565b005b34801561034a57600080fd5b50610353611497565b604051808273ffffffffffffffffffffffffffffffffffffffff1673ffffffffffffffffffffffffffffffffffffffff16815260200191505060405180910390f35b3480156103a157600080fd5b506103aa6114bc565b005b3480156103b857600080fd5b506103c161166f565b6040518082815260200191505060405180910390f35b3480156103e357600080fd5b506103ec61167c565b604051808273ffffffffffffffffffffffffffffffffffffffff1673ffffffffffffffffffffffffffffffffffffffff16815260200191505060405180910390f35b34801561043a57600080fd5b506104436116a2565b005b34801561045157600080fd5b506104826004803603810190808035600019169060200190929190803560001916906020019092919050505061197c565b005b34801561049057600080fd5b50610499611cf3565b6040518082815260200191505060405180910390f35b3480156104bb57600080fd5b506104c4611d00565b604051808215151515815260200191505060405180910390f35b3480156104ea57600080fd5b506104f3611d13565b005b34801561050157600080fd5b50610536600480360381019080803573ffffffffffffffffffffffffffffffffffffffff169060200190929190505050611eec565b005b34801561054457600080fd5b5061054d6120e1565b005b34801561055b57600080fd5b50610564612294565b005b34801561057257600080fd5b506105916004803603810190808035906020019092919050505061256f565b60405180846000191660001916815260200183600019166000191681526020018273ffffffffffffffffffffffffffffffffffffffff1673ffffffffffffffffffffffffffffffffffffffff168152602001935050505060405180910390f35b3480156105fd57600080fd5b506106066125c8565b604051808273ffffffffffffffffffffffffffffffffffffffff1673ffffffffffffffffffffffffffffffffffffffff16815260200191505060405180910390f35b34801561065457600080fd5b5061065d6125ee565b604051808273ffffffffffffffffffffffffffffffffffffffff1673ffffffffffffffffffffffffffffffffffffffff16815260200191505060405180910390f35b3480156106ab57600080fd5b506106b4612614565b6040518080602001828103825283818151815260200191508051906020019080838360005b838110156106f45780820151818401526020810190506106d9565b50505050905090810190601f1680156107215780820380516001836020036101000a031916815260200191505b509250505060405180910390f35b34801561073b57600080fd5b5061075a60048036038101908080359060200190929190505050612651565b604051808473ffffffffffffffffffffffffffffffffffffffff1673ffffffffffffffffffffffffffffffffffffffff16815260200183600019166000191681526020018263ffffffff1663ffffffff168152602001935050505060405180910390f35b3480156107ca57600080fd5b506107d36126ba565b005b3480156107e157600080fd5b506107ea61286a565b604051808260028111156107fa57fe5b60ff16815260200191505060405180910390f35b34801561081a57600080fd5b5061082361287d565b005b34801561083157600080fd5b5061083a612a30565b005b34801561084857600080fd5b50610851612be2565b604051808273ffffffffffffffffffffffffffffffffffffffff1673ffffffffffffffffffffffffffffffffffffffff16815260200191505060405180910390f35b34801561089f57600080fd5b506108a8612c08565b6040518082600e8111156108b857fe5b60ff16815260200191505060405180910390f35b3480156108d857600080fd5b506108e1612c1b565b60405180846000191660001916815260200183815260200182151515158152602001935050505060405180910390f35b34801561091d57600080fd5b50610926612c40565b604051808273ffffffffffffffffffffffffffffffffffffffff1673ffffffffffffffffffffffffffffffffffffffff16815260200191505060405180910390f35b34801561097457600080fd5b5061097d612c66565b005b34801561098b57600080fd5b50610994612e19565b005b600260009054906101000a900473ffffffffffffffffffffffffffffffffffffffff1673ffffffffffffffffffffffffffffffffffffffff163373ffffffffffffffffffffffffffffffffffffffff16141515610a5b576040517f08c379a000000000000000000000000000000000000000000000000000000000815260040180806020018281038252601b8152602001807f4f6e6c7920746865204661726d657220686173206163636573732e000000000081525060200191505060405180910390fd5b600080600e811115610a6957fe5b600c60009054906101000a900460ff16600e811115610a8457fe5b141515610af9576040517f08c379a000000000000000000000000000000000000000000000000000000000815260040180806020018281038252600e8152602001807f496e76616c69642073746174652e00000000000000000000000000000000000081525060200191505060405180910390fd5b610b227f4e6f7420417070726f7665640000000000000000000000000000000000000000612fcc565b6008600c60006101000a81548160ff0219169083600e811115610b4157fe5b021790555050565b600460009054906101000a900473ffffffffffffffffffffffffffffffffffffffff1673ffffffffffffffffffffffffffffffffffffffff163373ffffffffffffffffffffffffffffffffffffffff16141515610c0e576040517f08c379a000000000000000000000000000000000000000000000000000000000815260040180806020018281038252601e8152602001807f4f6e6c79207468652057617265686f75736520686173206163636573732e000081525060200191505060405180910390fd5b600480600e811115610c1c57fe5b600c60009054906101000a900460ff16600e811115610c3757fe5b141515610cac576040517f08c379a000000000000000000000000000000000000000000000000000000000815260040180806020018281038252600e8152602001807f496e76616c69642073746174652e00000000000000000000000000000000000081525060200191505060405180910390fd5b6005600c60006101000a81548160ff0219169083600e811115610ccb57fe5b0217905550610cf97f52656c6561736564000000000000000000000000000000000000000000000000612fcc565b50565b600160009054906101000a900473ffffffffffffffffffffffffffffffffffffffff1681565b6000809054906101000a900473ffffffffffffffffffffffffffffffffffffffff1673ffffffffffffffffffffffffffffffffffffffff163373ffffffffffffffffffffffffffffffffffffffff16141515610e0c576040517f08c379a00000000000000000000000000000000000000000000000000000000081526004018080602001828103825260258152602001807f4f6e6c792074686520636f6e74726163742063726561746f722068617320616381526020017f636573732e00000000000000000000000000000000000000000000000000000081525060400191505060405180910390fd5b84600160006101000a81548173ffffffffffffffffffffffffffffffffffffffff021916908373ffffffffffffffffffffffffffffffffffffffff16021790555083600260006101000a81548173ffffffffffffffffffffffffffffffffffffffff021916908373ffffffffffffffffffffffffffffffffffffffff16021790555082600360006101000a81548173ffffffffffffffffffffffffffffffffffffffff021916908373ffffffffffffffffffffffffffffffffffffffff16021790555081600460006101000a81548173ffffffffffffffffffffffffffffffffffffffff021916908373ffffffffffffffffffffffffffffffffffffffff16021790555080600560006101000a81548173ffffffffffffffffffffffffffffffffffffffff021916908373ffffffffffffffffffffffffffffffffffffffff1602179055505050505050565b600460009054906101000a900473ffffffffffffffffffffffffffffffffffffffff1673ffffffffffffffffffffffffffffffffffffffff163373ffffffffffffffffffffffffffffffffffffffff1614151561101d576040517f08c379a000000000000000000000000000000000000000000000000000000000815260040180806020018281038252601e8152602001807f4f6e6c79207468652057617265686f75736520686173206163636573732e000081525060200191505060405180910390fd5b600380600e81111561102b57fe5b600c60009054906101000a900460ff16600e81111561104657fe5b1415156110bb576040517f08c379a000000000000000000000000000000000000000000000000000000000815260040180806020018281038252600e8152602001807f496e76616c69642073746174652e00000000000000000000000000000000000081525060200191505060405180910390fd5b600a600c60006101000a81548160ff0219169083600e8111156110da57fe5b02179055506111087f446964206e6f7420726563656976650000000000000000000000000000000000612fcc565b50565b600160009054906101000a900473ffffffffffffffffffffffffffffffffffffffff1673ffffffffffffffffffffffffffffffffffffffff163373ffffffffffffffffffffffffffffffffffffffff161415156111f6576040517f08c379a00000000000000000000000000000000000000000000000000000000081526004018080602001828103825260218152602001807f4f6e6c7920746865205375706572204d61726b6574206861732061636365737381526020017f2e0000000000000000000000000000000000000000000000000000000000000081525060400191505060405180910390fd5b600680600e81111561120457fe5b600c60009054906101000a900460ff16600e81111561121f57fe5b141515611294576040517f08c379a000000000000000000000000000000000000000000000000000000000815260040180806020018281038252600e8152602001807f496e76616c69642073746174652e00000000000000000000000000000000000081525060200191505060405180910390fd5b6112bd7f4e6f742044656c69766572656400000000000000000000000000000000000000612fcc565b600d600c60006101000a81548160ff0219169083600e8111156112dc57fe5b021790555050565b600260009054906101000a900473ffffffffffffffffffffffffffffffffffffffff1673ffffffffffffffffffffffffffffffffffffffff163373ffffffffffffffffffffffffffffffffffffffff161415156113a9576040517f08c379a000000000000000000000000000000000000000000000000000000000815260040180806020018281038252601b8152602001807f4f6e6c7920746865204661726d657220686173206163636573732e000000000081525060200191505060405180910390fd5b600080600e8111156113b757fe5b600c60009054906101000a900460ff16600e8111156113d257fe5b141515611447576040517f08c379a000000000000000000000000000000000000000000000000000000000815260040180806020018281038252600e8152602001807f496e76616c69642073746174652e00000000000000000000000000000000000081525060200191505060405180910390fd5b6114707f417070726f766564000000000000000000000000000000000000000000000000612fcc565b6001600c60006101000a81548160ff0219169083600e81111561148f57fe5b021790555050565b6000809054906101000a900473ffffffffffffffffffffffffffffffffffffffff1681565b600560009054906101000a900473ffffffffffffffffffffffffffffffffffffffff1673ffffffffffffffffffffffffffffffffffffffff163373ffffffffffffffffffffffffffffffffffffffff16141515611581576040517f08c379a00000000000000000000000000000000000000000000000000000000081526004018080602001828103825260208152602001807f4f6e6c7920746865204469737472696275746f7220686173206163636573732e81525060200191505060405180910390fd5b600580600e81111561158f57fe5b600c60009054906101000a900460ff16600e8111156115aa57fe5b14151561161f576040517f08c379a000000000000000000000000000000000000000000000000000000000815260040180806020018281038252600e8152602001807f496e76616c69642073746174652e00000000000000000000000000000000000081525060200191505060405180910390fd5b6116487f496e205472616e73697400000000000000000000000000000000000000000000612fcc565b6006600c60006101000a81548160ff0219169083600e81111561166757fe5b021790555050565b6000600b80549050905090565b600360009054906101000a900473ffffffffffffffffffffffffffffffffffffffff1681565b6000809054906101000a900473ffffffffffffffffffffffffffffffffffffffff1673ffffffffffffffffffffffffffffffffffffffff163373ffffffffffffffffffffffffffffffffffffffff16148061174a5750600160009054906101000a900473ffffffffffffffffffffffffffffffffffffffff1673ffffffffffffffffffffffffffffffffffffffff163373ffffffffffffffffffffffffffffffffffffffff16145b806117a25750600260009054906101000a900473ffffffffffffffffffffffffffffffffffffffff1673ffffffffffffffffffffffffffffffffffffffff163373ffffffffffffffffffffffffffffffffffffffff16145b806117fa5750600360009054906101000a900473ffffffffffffffffffffffffffffffffffffffff1673ffffffffffffffffffffffffffffffffffffffff163373ffffffffffffffffffffffffffffffffffffffff16145b806118525750600460009054906101000a900473ffffffffffffffffffffffffffffffffffffffff1673ffffffffffffffffffffffffffffffffffffffff163373ffffffffffffffffffffffffffffffffffffffff16145b806118aa5750600560009054906101000a900473ffffffffffffffffffffffffffffffffffffffff1673ffffffffffffffffffffffffffffffffffffffff163373ffffffffffffffffffffffffffffffffffffffff16145b1515611944576040517f08c379a00000000000000000000000000000000000000000000000000000000081526004018080602001828103825260258152602001807f4f6e6c792074686520636f6e7472616374206f776e657273206861766520616381526020017f636573732e00000000000000000000000000000000000000000000000000000081525060400191505060405180910390fd5b600560149054906101000a900460ff16151561195f57600080fd5b6000600560146101000a81548160ff021916908315150217905550565b6000809054906101000a900473ffffffffffffffffffffffffffffffffffffffff1673ffffffffffffffffffffffffffffffffffffffff163373ffffffffffffffffffffffffffffffffffffffff161480611a245750600160009054906101000a900473ffffffffffffffffffffffffffffffffffffffff1673ffffffffffffffffffffffffffffffffffffffff163373ffffffffffffffffffffffffffffffffffffffff16145b80611a7c5750600260009054906101000a900473ffffffffffffffffffffffffffffffffffffffff1673ffffffffffffffffffffffffffffffffffffffff163373ffffffffffffffffffffffffffffffffffffffff16145b80611ad45750600360009054906101000a900473ffffffffffffffffffffffffffffffffffffffff1673ffffffffffffffffffffffffffffffffffffffff163373ffffffffffffffffffffffffffffffffffffffff16145b80611b2c5750600460009054906101000a900473ffffffffffffffffffffffffffffffffffffffff1673ffffffffffffffffffffffffffffffffffffffff163373ffffffffffffffffffffffffffffffffffffffff16145b80611b845750600560009054906101000a900473ffffffffffffffffffffffffffffffffffffffff1673ffffffffffffffffffffffffffffffffffffffff163373ffffffffffffffffffffffffffffffffffffffff16145b1515611c1e576040517f08c379a00000000000000000000000000000000000000000000000000000000081526004018080602001828103825260258152602001807f4f6e6c792074686520636f6e7472616374206f776e657273206861766520616381526020017f636573732e00000000000000000000000000000000000000000000000000000081525060400191505060405180910390fd5b600b60606040519081016040528084600019168152602001836000191681526020013373ffffffffffffffffffffffffffffffffffffffff1681525090806001815401808255809150509060018203906000526020600020906003020160009091929091909150600082015181600001906000191690556020820151816001019060001916905560408201518160020160006101000a81548173ffffffffffffffffffffffffffffffffffffffff021916908373ffffffffffffffffffffffffffffffffffffffff1602179055505050505050565b6000600a80549050905090565b600560149054906101000a900460ff1681565b600160009054906101000a900473ffffffffffffffffffffffffffffffffffffffff1673ffffffffffffffffffffffffffffffffffffffff163373ffffffffffffffffffffffffffffffffffffffff16141515611dfe576040517f08c379a00000000000000000000000000000000000000000000000000000000081526004018080602001828103825260218152602001807f4f6e6c7920746865205375706572204d61726b6574206861732061636365737381526020017f2e0000000000000000000000000000000000000000000000000000000000000081525060400191505060405180910390fd5b600680600e811115611e0c57fe5b600c60009054906101000a900460ff16600e811115611e2757fe5b141515611e9c576040517f08c379a000000000000000000000000000000000000000000000000000000000815260040180806020018281038252600e8152602001807f496e76616c69642073746174652e00000000000000000000000000000000000081525060200191505060405180910390fd5b611ec57f436f6e6669726d65642044656c69766572790000000000000000000000000000612fcc565b6007600c60006101000a81548160ff0219169083600e811115611ee457fe5b021790555050565b600360009054906101000a900473ffffffffffffffffffffffffffffffffffffffff1673ffffffffffffffffffffffffffffffffffffffff163373ffffffffffffffffffffffffffffffffffffffff16141515611fb1576040517f08c379a000000000000000000000000000000000000000000000000000000000815260040180806020018281038252601c8152602001807f4f6e6c79207468652041756469746f7220686173206163636573732e0000000081525060200191505060405180910390fd5b600280600e811115611fbf57fe5b600c60009054906101000a900460ff16600e811115611fda57fe5b14151561204f576040517f08c379a000000000000000000000000000000000000000000000000000000000815260040180806020018281038252600e8152602001807f496e76616c69642073746174652e00000000000000000000000000000000000081525060200191505060405180910390fd5b81600960006101000a81548173ffffffffffffffffffffffffffffffffffffffff021916908373ffffffffffffffffffffffffffffffffffffffff1602179055506120b97f53746f72656420646f63756d656e740000000000000000000000000000000000612fcc565b6003600c60006101000a81548160ff0219169083600e8111156120d857fe5b02179055505050565b600460009054906101000a900473ffffffffffffffffffffffffffffffffffffffff1673ffffffffffffffffffffffffffffffffffffffff163373ffffffffffffffffffffffffffffffffffffffff161415156121a6576040517f08c379a000000000000000000000000000000000000000000000000000000000815260040180806020018281038252601e8152602001807f4f6e6c79207468652057617265686f75736520686173206163636573732e000081525060200191505060405180910390fd5b600380600e8111156121b457fe5b600c60009054906101000a900460ff16600e8111156121cf57fe5b141515612244576040517f08c379a000000000000000000000000000000000000000000000000000000000815260040180806020018281038252600e8152602001807f496e76616c69642073746174652e00000000000000000000000000000000000081525060200191505060405180910390fd5b6004600c60006101000a81548160ff0219169083600e81111561226357fe5b02179055506122917f5265636569766564000000000000000000000000000000000000000000000000612fcc565b50565b6000809054906101000a900473ffffffffffffffffffffffffffffffffffffffff1673ffffffffffffffffffffffffffffffffffffffff163373ffffffffffffffffffffffffffffffffffffffff16148061233c5750600160009054906101000a900473ffffffffffffffffffffffffffffffffffffffff1673ffffffffffffffffffffffffffffffffffffffff163373ffffffffffffffffffffffffffffffffffffffff16145b806123945750600260009054906101000a900473ffffffffffffffffffffffffffffffffffffffff1673ffffffffffffffffffffffffffffffffffffffff163373ffffffffffffffffffffffffffffffffffffffff16145b806123ec5750600360009054906101000a900473ffffffffffffffffffffffffffffffffffffffff1673ffffffffffffffffffffffffffffffffffffffff163373ffffffffffffffffffffffffffffffffffffffff16145b806124445750600460009054906101000a900473ffffffffffffffffffffffffffffffffffffffff1673ffffffffffffffffffffffffffffffffffffffff163373ffffffffffffffffffffffffffffffffffffffff16145b8061249c5750600560009054906101000a900473ffffffffffffffffffffffffffffffffffffffff1673ffffffffffffffffffffffffffffffffffffffff163373ffffffffffffffffffffffffffffffffffffffff16145b1515612536576040517f08c379a00000000000000000000000000000000000000000000000000000000081526004018080602001828103825260258152602001807f4f6e6c792074686520636f6e7472616374206f776e657273206861766520616381526020017f636573732e00000000000000000000000000000000000000000000000000000081525060400191505060405180910390fd5b600560149054906101000a900460ff1615151561255257600080fd5b6001600560146101000a81548160ff021916908315150217905550565b600b8181548110151561257e57fe5b90600052602060002090600302016000915090508060000154908060010154908060020160009054906101000a900473ffffffffffffffffffffffffffffffffffffffff16905083565b600960009054906101000a900473ffffffffffffffffffffffffffffffffffffffff1681565b600460009054906101000a900473ffffffffffffffffffffffffffffffffffffffff1681565b60606040805190810160405280600b81526020017f68656c6c6f20776f726c64000000000000000000000000000000000000000000815250905090565b600a8181548110151561266057fe5b90600052602060002090600302016000915090508060000160009054906101000a900473ffffffffffffffffffffffffffffffffffffffff16908060010154908060020160009054906101000a900463ffffffff16905083565b600260009054906101000a900473ffffffffffffffffffffffffffffffffffffffff1673ffffffffffffffffffffffffffffffffffffffff163373ffffffffffffffffffffffffffffffffffffffff1614806127635750600360009054906101000a900473ffffffffffffffffffffffffffffffffffffffff1673ffffffffffffffffffffffffffffffffffffffff163373ffffffffffffffffffffffffffffffffffffffff16145b15156127fd576040517f08c379a00000000000000000000000000000000000000000000000000000000081526004018080602001828103825260288152602001807f4f6e6c7920746865204661726d657220616e642041756469746f72206861766581526020017f206163636573732e00000000000000000000000000000000000000000000000081525060400191505060405180910390fd5b600e600c60006101000a81548160ff0219169083600e81111561281c57fe5b021790555061284a7f5265766f6b656400000000000000000000000000000000000000000000000000612fcc565b6001600660020160006101000a81548160ff021916908315150217905550565b600c60019054906101000a900460ff1681565b600360009054906101000a900473ffffffffffffffffffffffffffffffffffffffff1673ffffffffffffffffffffffffffffffffffffffff163373ffffffffffffffffffffffffffffffffffffffff16141515612942576040517f08c379a000000000000000000000000000000000000000000000000000000000815260040180806020018281038252601c8152602001807f4f6e6c79207468652041756469746f7220686173206163636573732e0000000081525060200191505060405180910390fd5b600180600e81111561295057fe5b600c60009054906101000a900460ff16600e81111561296b57fe5b1415156129e0576040517f08c379a000000000000000000000000000000000000000000000000000000000815260040180806020018281038252600e8152602001807f496e76616c69642073746174652e00000000000000000000000000000000000081525060200191505060405180910390fd5b612a097f4175646974204661696c65640000000000000000000000000000000000000000612fcc565b6009600c60006101000a81548160ff0219169083600e811115612a2857fe5b021790555050565b600560009054906101000a900473ffffffffffffffffffffffffffffffffffffffff1673ffffffffffffffffffffffffffffffffffffffff163373ffffffffffffffffffffffffffffffffffffffff16141515612af5576040517f08c379a00000000000000000000000000000000000000000000000000000000081526004018080602001828103825260208152602001807f4f6e6c7920746865204469737472696275746f7220686173206163636573732e81525060200191505060405180910390fd5b600580600e811115612b0357fe5b600c60009054906101000a900460ff16600e811115612b1e57fe5b141515612b93576040517f08c379a000000000000000000000000000000000000000000000000000000000815260040180806020018281038252600e8152602001807f496e76616c69642073746174652e00000000000000000000000000000000000081525060200191505060405180910390fd5b612bbc7f4e65766572205265636569766564000000000000000000000000000000000000612fcc565b600c8060006101000a81548160ff0219169083600e811115612bda57fe5b021790555050565b600560009054906101000a900473ffffffffffffffffffffffffffffffffffffffff1681565b600c60009054906101000a900460ff1681565b60068060000154908060010154908060020160009054906101000a900460ff16905083565b600260009054906101000a900473ffffffffffffffffffffffffffffffffffffffff1681565b600360009054906101000a900473ffffffffffffffffffffffffffffffffffffffff1673ffffffffffffffffffffffffffffffffffffffff163373ffffffffffffffffffffffffffffffffffffffff16141515612d2b576040517f08c379a000000000000000000000000000000000000000000000000000000000815260040180806020018281038252601c8152602001807f4f6e6c79207468652041756469746f7220686173206163636573732e0000000081525060200191505060405180910390fd5b600180600e811115612d3957fe5b600c60009054906101000a900460ff16600e811115612d5457fe5b141515612dc9576040517f08c379a000000000000000000000000000000000000000000000000000000000815260040180806020018281038252600e8152602001807f496e76616c69642073746174652e00000000000000000000000000000000000081525060200191505060405180910390fd5b612df27f4175646974656400000000000000000000000000000000000000000000000000612fcc565b6002600c60006101000a81548160ff0219169083600e811115612e1157fe5b021790555050565b600460009054906101000a900473ffffffffffffffffffffffffffffffffffffffff1673ffffffffffffffffffffffffffffffffffffffff163373ffffffffffffffffffffffffffffffffffffffff16141515612ede576040517f08c379a000000000000000000000000000000000000000000000000000000000815260040180806020018281038252601e8152602001807f4f6e6c79207468652057617265686f75736520686173206163636573732e000081525060200191505060405180910390fd5b600480600e811115612eec57fe5b600c60009054906101000a900460ff16600e811115612f0757fe5b141515612f7c576040517f08c379a000000000000000000000000000000000000000000000000000000000815260040180806020018281038252600e8152602001807f496e76616c69642073746174652e00000000000000000000000000000000000081525060200191505060405180910390fd5b600b600c60006101000a81548160ff0219169083600e811115612f9b57fe5b0217905550612fc97f49737375652061742077617265686f7573650000000000000000000000000000612fcc565b50565b600a6060604051908101604052803373ffffffffffffffffffffffffffffffffffffffff168152602001836000191681526020014263ffffffff168152509080600181540180825580915050906001820390600052602060002090600302016000909192909190915060008201518160000160006101000a81548173ffffffffffffffffffffffffffffffffffffffff021916908373ffffffffffffffffffffffffffffffffffffffff1602179055506020820151816001019060001916905560408201518160020160006101000a81548163ffffffff021916908363ffffffff160217905550505050505600a165627a7a72305820188d082b44433ea2003af0633bb75136118c6a02b683d5c43eccf2c18ce9ecf40029a165627a7a72305820ed368af496a0e0ee988762da2568185efb89b229579057da6abac0f0c63be78d0029",
  "source": "/*\n * Copyright 2019 VMware, all rights reserved.\n * This software is released under MIT license.\n * The full license information can be found in LICENSE in the root directory of this project.\n */\n\npragma solidity >=0.4.21 <0.6.0;\n\nimport \"./OrdersV1.sol\";\nimport \"./OrdersV2.sol\";\nimport \"./OrderV2.sol\";\n\n/**\n * @title Parent contract for each order\n */\ncontract OrdersV2 is OrdersV1 {\n\n  constructor()\n    public\n    OrdersV1()\n  {}\n\n  /**\n   * @dev Create a new order\n   * @param product Is the product name for the order\n   * @param amount Amount of product requested\n   */\n  function create(bytes32 product, uint amount)\n    public\n    payable\n    returns (address)\n  {\n    OrderV2 newOrder = new OrderV2(product, amount, msg.sender);\n\n    orders.push(newOrder);\n    return newOrder;\n  }\n\n  function getVersion()\n    public pure returns(string) {\n      return(\"2.0\");\n    }\n\n}\n",
  "sourcePath": "/app/contracts/OrdersV2.sol",
  "compiler": {
    "name": "solc",
    "version": "0.4.24+commit.e67f0147.Emscripten.clang"
  },
  "schemaVersion": "3.3.2",
  "updatedAt": "2020-12-17T21:02:12.095Z",
  "devdoc": {
    "methods": {
      "create(bytes32,uint256)": {
        "details": "Create a new order",
        "params": {
          "amount": "Amount of product requested",
          "product": "Is the product name for the order"
        }
      },
      "getAmount()": {
        "details": "Returns how many orders have been created"
      }
    },
    "title": "Parent contract for each order"
  },
  "userdoc": {
    "methods": {}
  }
}