{
  "contractName": "OrdersV1",
  "abi": [
    {
      "constant": true,
      "inputs": [
        {
          "name": "",
          "type": "uint256"
        }
      ],
      "name": "transactions",
      "outputs": [
        {
          "name": "TransactionID",
          "type": "bytes32"
        },
        {
          "name": "CollectonCentre",
          "type": "bytes32"
        },
        {
          "name": "CollectoinDate",
          "type": "bytes32"
        },
        {
          "name": "SumittedWt",
          "type": "uint256"
        },
        {
          "name": "AcceptedWt",
          "type": "uint256"
        },
        {
          "name": "PlasticType",
          "type": "bytes32"
        },
        {
          "name": "ShippingDate",
          "type": "bytes32"
        },
        {
          "name": "ShipmentID",
          "type": "bytes32"
        },
        {
          "name": "ShipmentWt",
          "type": "uint256"
        },
        {
          "name": "ShippingReceivedDate",
          "type": "bytes32"
        },
        {
          "name": "Status",
          "type": "bytes32"
        },
        {
          "name": "UserID",
          "type": "bytes32"
        }
      ],
      "payable": false,
      "stateMutability": "view",
      "type": "function"
    },
    {
      "constant": true,
      "inputs": [
        {
          "name": "",
          "type": "uint256"
        }
      ],
      "name": "orders",
      "outputs": [
        {
          "name": "",
          "type": "address"
        }
      ],
      "payable": false,
      "stateMutability": "view",
      "type": "function"
    },
    {
      "constant": true,
      "inputs": [
        {
          "name": "",
          "type": "uint256"
        }
      ],
      "name": "suppliers",
      "outputs": [
        {
          "name": "supplierName",
          "type": "bytes32"
        },
        {
          "name": "purchaseDate",
          "type": "bytes32"
        },
        {
          "name": "supplierWt",
          "type": "uint256"
        },
        {
          "name": "warehouseWt",
          "type": "uint256"
        },
        {
          "name": "goodsType",
          "type": "bytes32"
        },
        {
          "name": "components",
          "type": "bytes32"
        },
        {
          "name": "price",
          "type": "uint256"
        }
      ],
      "payable": false,
      "stateMutability": "view",
      "type": "function"
    },
    {
      "constant": false,
      "inputs": [
        {
          "name": "product",
          "type": "bytes32"
        },
        {
          "name": "amount",
          "type": "uint256"
        }
      ],
      "name": "create",
      "outputs": [
        {
          "name": "",
          "type": "address"
        }
      ],
      "payable": true,
      "stateMutability": "payable",
      "type": "function"
    },
    {
      "constant": false,
      "inputs": [
        {
          "name": "supplierName",
          "type": "bytes32"
        },
        {
          "name": "purchaseDate",
          "type": "bytes32"
        },
        {
          "name": "supplierWt",
          "type": "uint256"
        },
        {
          "name": "warehouseWt",
          "type": "uint256"
        },
        {
          "name": "goodsType",
          "type": "bytes32"
        },
        {
          "name": "components",
          "type": "bytes32"
        },
        {
          "name": "price",
          "type": "uint256"
        }
      ],
      "name": "createSupplierCollection",
      "outputs": [],
      "payable": false,
      "stateMutability": "nonpayable",
      "type": "function"
    },
    {
      "constant": false,
      "inputs": [
        {
          "name": "transactionID",
          "type": "bytes32"
        },
        {
          "name": "collectonCentre",
          "type": "bytes32"
        },
        {
          "name": "collectionDate",
          "type": "bytes32"
        },
        {
          "name": "submittedWt",
          "type": "uint256"
        },
        {
          "name": "acceptedWt",
          "type": "uint256"
        },
        {
          "name": "plasticType",
          "type": "bytes32"
        },
        {
          "name": "shippingDate",
          "type": "bytes32"
        },
        {
          "name": "shipmentID",
          "type": "bytes32"
        },
        {
          "name": "shipmentWt",
          "type": "uint256"
        },
        {
          "name": "ShippingReceivedDate",
          "type": "bytes32"
        },
        {
          "name": "status",
          "type": "bytes32"
        },
        {
          "name": "userid",
          "type": "bytes32"
        }
      ],
      "name": "createPlasticTransaction",
      "outputs": [],
      "payable": false,
      "stateMutability": "nonpayable",
      "type": "function"
    },
    {
      "constant": true,
      "inputs": [],
      "name": "getAmount",
      "outputs": [
        {
          "name": "",
          "type": "uint256"
        }
      ],
      "payable": false,
      "stateMutability": "view",
      "type": "function"
    },
    {
      "constant": true,
      "inputs": [
        {
          "name": "x",
          "type": "uint32"
        }
      ],
      "name": "baz",
      "outputs": [
        {
          "name": "",
          "type": "uint32"
        }
      ],
      "payable": false,
      "stateMutability": "pure",
      "type": "function"
    }
  ],
  "bytecode": "0x608060405234801561001057600080fd5b50613b1e806100206000396000f30060806040526004361061008e576000357c0100000000000000000000000000000000000000000000000000000000900463ffffffff1680631e7e4a981461009357806352937897146101525780637d68785e146101cb5780639ace38c21461021e578063a042c132146102f4578063a85c38ef14610362578063cea23121146103cf578063d321fe291461045a575b600080fd5b34801561009f57600080fd5b50610150600480360381019080803560001916906020019092919080356000191690602001909291908035600019169060200190929190803590602001909291908035906020019092919080356000191690602001909291908035600019169060200190929190803560001916906020019092919080359060200190929190803560001916906020019092919080356000191690602001909291908035600019169060200190929190505050610485565b005b34801561015e57600080fd5b506101c960048036038101908080356000191690602001909291908035600019169060200190929190803590602001909291908035906020019092919080356000191690602001909291908035600019169060200190929190803590602001909291905050506105f8565b005b3480156101d757600080fd5b506101fc600480360381019080803563ffffffff1690602001909291905050506106df565b604051808263ffffffff1663ffffffff16815260200191505060405180910390f35b34801561022a57600080fd5b50610249600480360381019080803590602001909291905050506106e9565b604051808d600019166000191681526020018c600019166000191681526020018b600019166000191681526020018a81526020018981526020018860001916600019168152602001876000191660001916815260200186600019166000191681526020018581526020018460001916600019168152602001836000191660001916815260200182600019166000191681526020019c5050505050505050505050505060405180910390f35b610320600480360381019080803560001916906020019092919080359060200190929190505050610758565b604051808273ffffffffffffffffffffffffffffffffffffffff1673ffffffffffffffffffffffffffffffffffffffff16815260200191505060405180910390f35b34801561036e57600080fd5b5061038d60048036038101908080359060200190929190505050610841565b604051808273ffffffffffffffffffffffffffffffffffffffff1673ffffffffffffffffffffffffffffffffffffffff16815260200191505060405180910390f35b3480156103db57600080fd5b506103fa6004803603810190808035906020019092919050505061087f565b60405180886000191660001916815260200187600019166000191681526020018681526020018581526020018460001916600019168152602001836000191660001916815260200182815260200197505050505050505060405180910390f35b34801561046657600080fd5b5061046f6108d0565b6040518082815260200191505060405180910390f35b61048d6108dc565b610180604051908101604052808e6000191681526020018d6000191681526020018c6000191681526020018b81526020018a81526020018960001916815260200188600019168152602001876000191681526020018681526020018560001916815260200184600019168152602001836000191681525090506002819080600181540180825580915050906001820390600052602060002090600c020160009091929091909150600082015181600001906000191690556020820151816001019060001916905560408201518160020190600019169055606082015181600301556080820151816004015560a0820151816005019060001916905560c0820151816006019060001916905560e082015181600701906000191690556101008201518160080155610120820151816009019060001916905561014082015181600a019060001916905561016082015181600b019060001916905550505050505050505050505050505050565b610600610959565b60e0604051908101604052808960001916815260200188600019168152602001878152602001868152602001856000191681526020018460001916815260200183815250905060018190806001815401808255809150509060018203906000526020600020906007020160009091929091909150600082015181600001906000191690556020820151816001019060001916905560408201518160020155606082015181600301556080820151816004019060001916905560a0820151816005019060001916905560c082015181600601555050505050505050505050565b6000819050919050565b6002818154811015156106f857fe5b90600052602060002090600c020160009150905080600001549080600101549080600201549080600301549080600401549080600501549080600601549080600701549080600801549080600901549080600a01549080600b015490508c565b6000808383336107666109a3565b8084600019166000191681526020018381526020018273ffffffffffffffffffffffffffffffffffffffff1673ffffffffffffffffffffffffffffffffffffffff1681526020019350505050604051809103906000f0801580156107ce573d6000803e3d6000fd5b50905060008190806001815401808255809150509060018203906000526020600020016000909192909190916101000a81548173ffffffffffffffffffffffffffffffffffffffff021916908373ffffffffffffffffffffffffffffffffffffffff160217905550508091505092915050565b60008181548110151561085057fe5b906000526020600020016000915054906101000a900473ffffffffffffffffffffffffffffffffffffffff1681565b60018181548110151561088e57fe5b90600052602060002090600702016000915090508060000154908060010154908060020154908060030154908060040154908060050154908060060154905087565b60008080549050905090565b610180604051908101604052806000801916815260200160008019168152602001600080191681526020016000815260200160008152602001600080191681526020016000801916815260200160008019168152602001600081526020016000801916815260200160008019168152602001600080191681525090565b60e060405190810160405280600080191681526020016000801916815260200160008152602001600081526020016000801916815260200160008019168152602001600081525090565b60405161313f806109b483390190560060806040526000600560146101000a81548160ff02191690831515021790555034801561002b57600080fd5b5060405160608061313f833981018060405281019080805190602001909291908051906020019092919080519060200190929190505050806000806101000a81548173ffffffffffffffffffffffffffffffffffffffff021916908373ffffffffffffffffffffffffffffffffffffffff1602179055508260066000018160001916905550816006600101819055506000600660020160006101000a81548160ff0219169083151502179055506000600c60006101000a81548160ff0219169083600e8111156100f757fe5b02179055506000600c60016101000a81548160ff0219169083600281111561011b57fe5b021790555050505061300d806101326000396000f3006080604052600436106101a1576000357c0100000000000000000000000000000000000000000000000000000000900463ffffffff16806301c195eb146101a6578063029ee155146101bd57806303b2e373146101d4578063072b78881461022b5780630df5780c146102ee57806311d72e471461030557806312424e3f1461031c5780631e2f73b1146103335780632828dbe91461038a5780633c37a048146103a15780633ec045a6146103cc5780633f4ba83a146104235780634c7be5601461043a5780635478f468146104795780635c975abb146104a45780635e10177b146104d357806377684862146104ea57806380a202961461052d5780638456cb591461054457806394c23ffd1461055b57806395b6f31a146105e65780639b6227691461063d578063a7a38f0b14610694578063b6549f7514610723578063bc779a6f1461073a578063bde9e40e14610773578063be9f5beb1461078a578063bfe10928146107a1578063c19d93fb146107f8578063c885044e14610831578063d811fcf014610876578063efb37a39146108cd578063f1ab1aa6146108e4575b600080fd5b3480156101b257600080fd5b506101bb6108fb565b005b3480156101c957600080fd5b506101d2610aae565b005b3480156101e057600080fd5b506101e9610c61565b604051808273ffffffffffffffffffffffffffffffffffffffff1673ffffffffffffffffffffffffffffffffffffffff16815260200191505060405180910390f35b34801561023757600080fd5b506102ec600480360381019080803573ffffffffffffffffffffffffffffffffffffffff169060200190929190803573ffffffffffffffffffffffffffffffffffffffff169060200190929190803573ffffffffffffffffffffffffffffffffffffffff169060200190929190803573ffffffffffffffffffffffffffffffffffffffff169060200190929190803573ffffffffffffffffffffffffffffffffffffffff169060200190929190505050610c87565b005b3480156102fa57600080fd5b50610303610ebd565b005b34801561031157600080fd5b5061031a611070565b005b34801561032857600080fd5b50610331611249565b005b34801561033f57600080fd5b506103486113fc565b604051808273ffffffffffffffffffffffffffffffffffffffff1673ffffffffffffffffffffffffffffffffffffffff16815260200191505060405180910390f35b34801561039657600080fd5b5061039f611421565b005b3480156103ad57600080fd5b506103b66115d4565b6040518082815260200191505060405180910390f35b3480156103d857600080fd5b506103e16115e1565b604051808273ffffffffffffffffffffffffffffffffffffffff1673ffffffffffffffffffffffffffffffffffffffff16815260200191505060405180910390f35b34801561042f57600080fd5b50610438611607565b005b34801561044657600080fd5b50610477600480360381019080803560001916906020019092919080356000191690602001909291905050506118e1565b005b34801561048557600080fd5b5061048e611c58565b6040518082815260200191505060405180910390f35b3480156104b057600080fd5b506104b9611c65565b604051808215151515815260200191505060405180910390f35b3480156104df57600080fd5b506104e8611c78565b005b3480156104f657600080fd5b5061052b600480360381019080803573ffffffffffffffffffffffffffffffffffffffff169060200190929190505050611e51565b005b34801561053957600080fd5b50610542612046565b005b34801561055057600080fd5b506105596121f9565b005b34801561056757600080fd5b50610586600480360381019080803590602001909291905050506124d4565b60405180846000191660001916815260200183600019166000191681526020018273ffffffffffffffffffffffffffffffffffffffff1673ffffffffffffffffffffffffffffffffffffffff168152602001935050505060405180910390f35b3480156105f257600080fd5b506105fb61252d565b604051808273ffffffffffffffffffffffffffffffffffffffff1673ffffffffffffffffffffffffffffffffffffffff16815260200191505060405180910390f35b34801561064957600080fd5b50610652612553565b604051808273ffffffffffffffffffffffffffffffffffffffff1673ffffffffffffffffffffffffffffffffffffffff16815260200191505060405180910390f35b3480156106a057600080fd5b506106bf60048036038101908080359060200190929190505050612579565b604051808473ffffffffffffffffffffffffffffffffffffffff1673ffffffffffffffffffffffffffffffffffffffff16815260200183600019166000191681526020018263ffffffff1663ffffffff168152602001935050505060405180910390f35b34801561072f57600080fd5b506107386125e2565b005b34801561074657600080fd5b5061074f612792565b6040518082600281111561075f57fe5b60ff16815260200191505060405180910390f35b34801561077f57600080fd5b506107886127a5565b005b34801561079657600080fd5b5061079f612958565b005b3480156107ad57600080fd5b506107b6612b0a565b604051808273ffffffffffffffffffffffffffffffffffffffff1673ffffffffffffffffffffffffffffffffffffffff16815260200191505060405180910390f35b34801561080457600080fd5b5061080d612b30565b6040518082600e81111561081d57fe5b60ff16815260200191505060405180910390f35b34801561083d57600080fd5b50610846612b43565b60405180846000191660001916815260200183815260200182151515158152602001935050505060405180910390f35b34801561088257600080fd5b5061088b612b68565b604051808273ffffffffffffffffffffffffffffffffffffffff1673ffffffffffffffffffffffffffffffffffffffff16815260200191505060405180910390f35b3480156108d957600080fd5b506108e2612b8e565b005b3480156108f057600080fd5b506108f9612d41565b005b600260009054906101000a900473ffffffffffffffffffffffffffffffffffffffff1673ffffffffffffffffffffffffffffffffffffffff163373ffffffffffffffffffffffffffffffffffffffff161415156109c0576040517f08c379a000000000000000000000000000000000000000000000000000000000815260040180806020018281038252601b8152602001807f4f6e6c7920746865204661726d657220686173206163636573732e000000000081525060200191505060405180910390fd5b600080600e8111156109ce57fe5b600c60009054906101000a900460ff16600e8111156109e957fe5b141515610a5e576040517f08c379a000000000000000000000000000000000000000000000000000000000815260040180806020018281038252600e8152602001807f496e76616c69642073746174652e00000000000000000000000000000000000081525060200191505060405180910390fd5b610a877f4e6f7420417070726f7665640000000000000000000000000000000000000000612ef4565b6008600c60006101000a81548160ff0219169083600e811115610aa657fe5b021790555050565b600460009054906101000a900473ffffffffffffffffffffffffffffffffffffffff1673ffffffffffffffffffffffffffffffffffffffff163373ffffffffffffffffffffffffffffffffffffffff16141515610b73576040517f08c379a000000000000000000000000000000000000000000000000000000000815260040180806020018281038252601e8152602001807f4f6e6c79207468652057617265686f75736520686173206163636573732e000081525060200191505060405180910390fd5b600480600e811115610b8157fe5b600c60009054906101000a900460ff16600e811115610b9c57fe5b141515610c11576040517f08c379a000000000000000000000000000000000000000000000000000000000815260040180806020018281038252600e8152602001807f496e76616c69642073746174652e00000000000000000000000000000000000081525060200191505060405180910390fd5b6005600c60006101000a81548160ff0219169083600e811115610c3057fe5b0217905550610c5e7f52656c6561736564000000000000000000000000000000000000000000000000612ef4565b50565b600160009054906101000a900473ffffffffffffffffffffffffffffffffffffffff1681565b6000809054906101000a900473ffffffffffffffffffffffffffffffffffffffff1673ffffffffffffffffffffffffffffffffffffffff163373ffffffffffffffffffffffffffffffffffffffff16141515610d71576040517f08c379a00000000000000000000000000000000000000000000000000000000081526004018080602001828103825260258152602001807f4f6e6c792074686520636f6e74726163742063726561746f722068617320616381526020017f636573732e00000000000000000000000000000000000000000000000000000081525060400191505060405180910390fd5b84600160006101000a81548173ffffffffffffffffffffffffffffffffffffffff021916908373ffffffffffffffffffffffffffffffffffffffff16021790555083600260006101000a81548173ffffffffffffffffffffffffffffffffffffffff021916908373ffffffffffffffffffffffffffffffffffffffff16021790555082600360006101000a81548173ffffffffffffffffffffffffffffffffffffffff021916908373ffffffffffffffffffffffffffffffffffffffff16021790555081600460006101000a81548173ffffffffffffffffffffffffffffffffffffffff021916908373ffffffffffffffffffffffffffffffffffffffff16021790555080600560006101000a81548173ffffffffffffffffffffffffffffffffffffffff021916908373ffffffffffffffffffffffffffffffffffffffff1602179055505050505050565b600460009054906101000a900473ffffffffffffffffffffffffffffffffffffffff1673ffffffffffffffffffffffffffffffffffffffff163373ffffffffffffffffffffffffffffffffffffffff16141515610f82576040517f08c379a000000000000000000000000000000000000000000000000000000000815260040180806020018281038252601e8152602001807f4f6e6c79207468652057617265686f75736520686173206163636573732e000081525060200191505060405180910390fd5b600380600e811115610f9057fe5b600c60009054906101000a900460ff16600e811115610fab57fe5b141515611020576040517f08c379a000000000000000000000000000000000000000000000000000000000815260040180806020018281038252600e8152602001807f496e76616c69642073746174652e00000000000000000000000000000000000081525060200191505060405180910390fd5b600a600c60006101000a81548160ff0219169083600e81111561103f57fe5b021790555061106d7f446964206e6f7420726563656976650000000000000000000000000000000000612ef4565b50565b600160009054906101000a900473ffffffffffffffffffffffffffffffffffffffff1673ffffffffffffffffffffffffffffffffffffffff163373ffffffffffffffffffffffffffffffffffffffff1614151561115b576040517f08c379a00000000000000000000000000000000000000000000000000000000081526004018080602001828103825260218152602001807f4f6e6c7920746865205375706572204d61726b6574206861732061636365737381526020017f2e0000000000000000000000000000000000000000000000000000000000000081525060400191505060405180910390fd5b600680600e81111561116957fe5b600c60009054906101000a900460ff16600e81111561118457fe5b1415156111f9576040517f08c379a000000000000000000000000000000000000000000000000000000000815260040180806020018281038252600e8152602001807f496e76616c69642073746174652e00000000000000000000000000000000000081525060200191505060405180910390fd5b6112227f4e6f742044656c69766572656400000000000000000000000000000000000000612ef4565b600d600c60006101000a81548160ff0219169083600e81111561124157fe5b021790555050565b600260009054906101000a900473ffffffffffffffffffffffffffffffffffffffff1673ffffffffffffffffffffffffffffffffffffffff163373ffffffffffffffffffffffffffffffffffffffff1614151561130e576040517f08c379a000000000000000000000000000000000000000000000000000000000815260040180806020018281038252601b8152602001807f4f6e6c7920746865204661726d657220686173206163636573732e000000000081525060200191505060405180910390fd5b600080600e81111561131c57fe5b600c60009054906101000a900460ff16600e81111561133757fe5b1415156113ac576040517f08c379a000000000000000000000000000000000000000000000000000000000815260040180806020018281038252600e8152602001807f496e76616c69642073746174652e00000000000000000000000000000000000081525060200191505060405180910390fd5b6113d57f417070726f766564000000000000000000000000000000000000000000000000612ef4565b6001600c60006101000a81548160ff0219169083600e8111156113f457fe5b021790555050565b6000809054906101000a900473ffffffffffffffffffffffffffffffffffffffff1681565b600560009054906101000a900473ffffffffffffffffffffffffffffffffffffffff1673ffffffffffffffffffffffffffffffffffffffff163373ffffffffffffffffffffffffffffffffffffffff161415156114e6576040517f08c379a00000000000000000000000000000000000000000000000000000000081526004018080602001828103825260208152602001807f4f6e6c7920746865204469737472696275746f7220686173206163636573732e81525060200191505060405180910390fd5b600580600e8111156114f457fe5b600c60009054906101000a900460ff16600e81111561150f57fe5b141515611584576040517f08c379a000000000000000000000000000000000000000000000000000000000815260040180806020018281038252600e8152602001807f496e76616c69642073746174652e00000000000000000000000000000000000081525060200191505060405180910390fd5b6115ad7f496e205472616e73697400000000000000000000000000000000000000000000612ef4565b6006600c60006101000a81548160ff0219169083600e8111156115cc57fe5b021790555050565b6000600b80549050905090565b600360009054906101000a900473ffffffffffffffffffffffffffffffffffffffff1681565b6000809054906101000a900473ffffffffffffffffffffffffffffffffffffffff1673ffffffffffffffffffffffffffffffffffffffff163373ffffffffffffffffffffffffffffffffffffffff1614806116af5750600160009054906101000a900473ffffffffffffffffffffffffffffffffffffffff1673ffffffffffffffffffffffffffffffffffffffff163373ffffffffffffffffffffffffffffffffffffffff16145b806117075750600260009054906101000a900473ffffffffffffffffffffffffffffffffffffffff1673ffffffffffffffffffffffffffffffffffffffff163373ffffffffffffffffffffffffffffffffffffffff16145b8061175f5750600360009054906101000a900473ffffffffffffffffffffffffffffffffffffffff1673ffffffffffffffffffffffffffffffffffffffff163373ffffffffffffffffffffffffffffffffffffffff16145b806117b75750600460009054906101000a900473ffffffffffffffffffffffffffffffffffffffff1673ffffffffffffffffffffffffffffffffffffffff163373ffffffffffffffffffffffffffffffffffffffff16145b8061180f5750600560009054906101000a900473ffffffffffffffffffffffffffffffffffffffff1673ffffffffffffffffffffffffffffffffffffffff163373ffffffffffffffffffffffffffffffffffffffff16145b15156118a9576040517f08c379a00000000000000000000000000000000000000000000000000000000081526004018080602001828103825260258152602001807f4f6e6c792074686520636f6e7472616374206f776e657273206861766520616381526020017f636573732e00000000000000000000000000000000000000000000000000000081525060400191505060405180910390fd5b600560149054906101000a900460ff1615156118c457600080fd5b6000600560146101000a81548160ff021916908315150217905550565b6000809054906101000a900473ffffffffffffffffffffffffffffffffffffffff1673ffffffffffffffffffffffffffffffffffffffff163373ffffffffffffffffffffffffffffffffffffffff1614806119895750600160009054906101000a900473ffffffffffffffffffffffffffffffffffffffff1673ffffffffffffffffffffffffffffffffffffffff163373ffffffffffffffffffffffffffffffffffffffff16145b806119e15750600260009054906101000a900473ffffffffffffffffffffffffffffffffffffffff1673ffffffffffffffffffffffffffffffffffffffff163373ffffffffffffffffffffffffffffffffffffffff16145b80611a395750600360009054906101000a900473ffffffffffffffffffffffffffffffffffffffff1673ffffffffffffffffffffffffffffffffffffffff163373ffffffffffffffffffffffffffffffffffffffff16145b80611a915750600460009054906101000a900473ffffffffffffffffffffffffffffffffffffffff1673ffffffffffffffffffffffffffffffffffffffff163373ffffffffffffffffffffffffffffffffffffffff16145b80611ae95750600560009054906101000a900473ffffffffffffffffffffffffffffffffffffffff1673ffffffffffffffffffffffffffffffffffffffff163373ffffffffffffffffffffffffffffffffffffffff16145b1515611b83576040517f08c379a00000000000000000000000000000000000000000000000000000000081526004018080602001828103825260258152602001807f4f6e6c792074686520636f6e7472616374206f776e657273206861766520616381526020017f636573732e00000000000000000000000000000000000000000000000000000081525060400191505060405180910390fd5b600b60606040519081016040528084600019168152602001836000191681526020013373ffffffffffffffffffffffffffffffffffffffff1681525090806001815401808255809150509060018203906000526020600020906003020160009091929091909150600082015181600001906000191690556020820151816001019060001916905560408201518160020160006101000a81548173ffffffffffffffffffffffffffffffffffffffff021916908373ffffffffffffffffffffffffffffffffffffffff1602179055505050505050565b6000600a80549050905090565b600560149054906101000a900460ff1681565b600160009054906101000a900473ffffffffffffffffffffffffffffffffffffffff1673ffffffffffffffffffffffffffffffffffffffff163373ffffffffffffffffffffffffffffffffffffffff16141515611d63576040517f08c379a00000000000000000000000000000000000000000000000000000000081526004018080602001828103825260218152602001807f4f6e6c7920746865205375706572204d61726b6574206861732061636365737381526020017f2e0000000000000000000000000000000000000000000000000000000000000081525060400191505060405180910390fd5b600680600e811115611d7157fe5b600c60009054906101000a900460ff16600e811115611d8c57fe5b141515611e01576040517f08c379a000000000000000000000000000000000000000000000000000000000815260040180806020018281038252600e8152602001807f496e76616c69642073746174652e00000000000000000000000000000000000081525060200191505060405180910390fd5b611e2a7f436f6e6669726d65642044656c69766572790000000000000000000000000000612ef4565b6007600c60006101000a81548160ff0219169083600e811115611e4957fe5b021790555050565b600360009054906101000a900473ffffffffffffffffffffffffffffffffffffffff1673ffffffffffffffffffffffffffffffffffffffff163373ffffffffffffffffffffffffffffffffffffffff16141515611f16576040517f08c379a000000000000000000000000000000000000000000000000000000000815260040180806020018281038252601c8152602001807f4f6e6c79207468652041756469746f7220686173206163636573732e0000000081525060200191505060405180910390fd5b600280600e811115611f2457fe5b600c60009054906101000a900460ff16600e811115611f3f57fe5b141515611fb4576040517f08c379a000000000000000000000000000000000000000000000000000000000815260040180806020018281038252600e8152602001807f496e76616c69642073746174652e00000000000000000000000000000000000081525060200191505060405180910390fd5b81600960006101000a81548173ffffffffffffffffffffffffffffffffffffffff021916908373ffffffffffffffffffffffffffffffffffffffff16021790555061201e7f53746f72656420646f63756d656e740000000000000000000000000000000000612ef4565b6003600c60006101000a81548160ff0219169083600e81111561203d57fe5b02179055505050565b600460009054906101000a900473ffffffffffffffffffffffffffffffffffffffff1673ffffffffffffffffffffffffffffffffffffffff163373ffffffffffffffffffffffffffffffffffffffff1614151561210b576040517f08c379a000000000000000000000000000000000000000000000000000000000815260040180806020018281038252601e8152602001807f4f6e6c79207468652057617265686f75736520686173206163636573732e000081525060200191505060405180910390fd5b600380600e81111561211957fe5b600c60009054906101000a900460ff16600e81111561213457fe5b1415156121a9576040517f08c379a000000000000000000000000000000000000000000000000000000000815260040180806020018281038252600e8152602001807f496e76616c69642073746174652e00000000000000000000000000000000000081525060200191505060405180910390fd5b6004600c60006101000a81548160ff0219169083600e8111156121c857fe5b02179055506121f67f5265636569766564000000000000000000000000000000000000000000000000612ef4565b50565b6000809054906101000a900473ffffffffffffffffffffffffffffffffffffffff1673ffffffffffffffffffffffffffffffffffffffff163373ffffffffffffffffffffffffffffffffffffffff1614806122a15750600160009054906101000a900473ffffffffffffffffffffffffffffffffffffffff1673ffffffffffffffffffffffffffffffffffffffff163373ffffffffffffffffffffffffffffffffffffffff16145b806122f95750600260009054906101000a900473ffffffffffffffffffffffffffffffffffffffff1673ffffffffffffffffffffffffffffffffffffffff163373ffffffffffffffffffffffffffffffffffffffff16145b806123515750600360009054906101000a900473ffffffffffffffffffffffffffffffffffffffff1673ffffffffffffffffffffffffffffffffffffffff163373ffffffffffffffffffffffffffffffffffffffff16145b806123a95750600460009054906101000a900473ffffffffffffffffffffffffffffffffffffffff1673ffffffffffffffffffffffffffffffffffffffff163373ffffffffffffffffffffffffffffffffffffffff16145b806124015750600560009054906101000a900473ffffffffffffffffffffffffffffffffffffffff1673ffffffffffffffffffffffffffffffffffffffff163373ffffffffffffffffffffffffffffffffffffffff16145b151561249b576040517f08c379a00000000000000000000000000000000000000000000000000000000081526004018080602001828103825260258152602001807f4f6e6c792074686520636f6e7472616374206f776e657273206861766520616381526020017f636573732e00000000000000000000000000000000000000000000000000000081525060400191505060405180910390fd5b600560149054906101000a900460ff161515156124b757600080fd5b6001600560146101000a81548160ff021916908315150217905550565b600b818154811015156124e357fe5b90600052602060002090600302016000915090508060000154908060010154908060020160009054906101000a900473ffffffffffffffffffffffffffffffffffffffff16905083565b600960009054906101000a900473ffffffffffffffffffffffffffffffffffffffff1681565b600460009054906101000a900473ffffffffffffffffffffffffffffffffffffffff1681565b600a8181548110151561258857fe5b90600052602060002090600302016000915090508060000160009054906101000a900473ffffffffffffffffffffffffffffffffffffffff16908060010154908060020160009054906101000a900463ffffffff16905083565b600260009054906101000a900473ffffffffffffffffffffffffffffffffffffffff1673ffffffffffffffffffffffffffffffffffffffff163373ffffffffffffffffffffffffffffffffffffffff16148061268b5750600360009054906101000a900473ffffffffffffffffffffffffffffffffffffffff1673ffffffffffffffffffffffffffffffffffffffff163373ffffffffffffffffffffffffffffffffffffffff16145b1515612725576040517f08c379a00000000000000000000000000000000000000000000000000000000081526004018080602001828103825260288152602001807f4f6e6c7920746865204661726d657220616e642041756469746f72206861766581526020017f206163636573732e00000000000000000000000000000000000000000000000081525060400191505060405180910390fd5b600e600c60006101000a81548160ff0219169083600e81111561274457fe5b02179055506127727f5265766f6b656400000000000000000000000000000000000000000000000000612ef4565b6001600660020160006101000a81548160ff021916908315150217905550565b600c60019054906101000a900460ff1681565b600360009054906101000a900473ffffffffffffffffffffffffffffffffffffffff1673ffffffffffffffffffffffffffffffffffffffff163373ffffffffffffffffffffffffffffffffffffffff1614151561286a576040517f08c379a000000000000000000000000000000000000000000000000000000000815260040180806020018281038252601c8152602001807f4f6e6c79207468652041756469746f7220686173206163636573732e0000000081525060200191505060405180910390fd5b600180600e81111561287857fe5b600c60009054906101000a900460ff16600e81111561289357fe5b141515612908576040517f08c379a000000000000000000000000000000000000000000000000000000000815260040180806020018281038252600e8152602001807f496e76616c69642073746174652e00000000000000000000000000000000000081525060200191505060405180910390fd5b6129317f4175646974204661696c65640000000000000000000000000000000000000000612ef4565b6009600c60006101000a81548160ff0219169083600e81111561295057fe5b021790555050565b600560009054906101000a900473ffffffffffffffffffffffffffffffffffffffff1673ffffffffffffffffffffffffffffffffffffffff163373ffffffffffffffffffffffffffffffffffffffff16141515612a1d576040517f08c379a00000000000000000000000000000000000000000000000000000000081526004018080602001828103825260208152602001807f4f6e6c7920746865204469737472696275746f7220686173206163636573732e81525060200191505060405180910390fd5b600580600e811115612a2b57fe5b600c60009054906101000a900460ff16600e811115612a4657fe5b141515612abb576040517f08c379a000000000000000000000000000000000000000000000000000000000815260040180806020018281038252600e8152602001807f496e76616c69642073746174652e00000000000000000000000000000000000081525060200191505060405180910390fd5b612ae47f4e65766572205265636569766564000000000000000000000000000000000000612ef4565b600c8060006101000a81548160ff0219169083600e811115612b0257fe5b021790555050565b600560009054906101000a900473ffffffffffffffffffffffffffffffffffffffff1681565b600c60009054906101000a900460ff1681565b60068060000154908060010154908060020160009054906101000a900460ff16905083565b600260009054906101000a900473ffffffffffffffffffffffffffffffffffffffff1681565b600360009054906101000a900473ffffffffffffffffffffffffffffffffffffffff1673ffffffffffffffffffffffffffffffffffffffff163373ffffffffffffffffffffffffffffffffffffffff16141515612c53576040517f08c379a000000000000000000000000000000000000000000000000000000000815260040180806020018281038252601c8152602001807f4f6e6c79207468652041756469746f7220686173206163636573732e0000000081525060200191505060405180910390fd5b600180600e811115612c6157fe5b600c60009054906101000a900460ff16600e811115612c7c57fe5b141515612cf1576040517f08c379a000000000000000000000000000000000000000000000000000000000815260040180806020018281038252600e8152602001807f496e76616c69642073746174652e00000000000000000000000000000000000081525060200191505060405180910390fd5b612d1a7f4175646974656400000000000000000000000000000000000000000000000000612ef4565b6002600c60006101000a81548160ff0219169083600e811115612d3957fe5b021790555050565b600460009054906101000a900473ffffffffffffffffffffffffffffffffffffffff1673ffffffffffffffffffffffffffffffffffffffff163373ffffffffffffffffffffffffffffffffffffffff16141515612e06576040517f08c379a000000000000000000000000000000000000000000000000000000000815260040180806020018281038252601e8152602001807f4f6e6c79207468652057617265686f75736520686173206163636573732e000081525060200191505060405180910390fd5b600480600e811115612e1457fe5b600c60009054906101000a900460ff16600e811115612e2f57fe5b141515612ea4576040517f08c379a000000000000000000000000000000000000000000000000000000000815260040180806020018281038252600e8152602001807f496e76616c69642073746174652e00000000000000000000000000000000000081525060200191505060405180910390fd5b600b600c60006101000a81548160ff0219169083600e811115612ec357fe5b0217905550612ef17f49737375652061742077617265686f7573650000000000000000000000000000612ef4565b50565b600a6060604051908101604052803373ffffffffffffffffffffffffffffffffffffffff168152602001836000191681526020014263ffffffff168152509080600181540180825580915050906001820390600052602060002090600302016000909192909190915060008201518160000160006101000a81548173ffffffffffffffffffffffffffffffffffffffff021916908373ffffffffffffffffffffffffffffffffffffffff1602179055506020820151816001019060001916905560408201518160020160006101000a81548163ffffffff021916908363ffffffff160217905550505050505600a165627a7a72305820c0886025af3d48122a25ce30559478fc6292e4c9f5d3590f5f5d5aa5ac0d5cd30029a165627a7a7230582072fa9ce39a05131ecb7e080b2443044c68b7157b039c75837929571176678fb70029",
  "source": "/*\n * Copyright 2019 VMware, all rights reserved.\n * This software is released under MIT license.\n * The full license information can be found in LICENSE in the root directory of this project.\n */\n\npragma solidity >=0.4.21 <0.6.0;\n\nimport \"./OrderV1.sol\";\n\n\n/**\n * @title Parent contract for each order\n */\ncontract OrdersV1 {\n\n   struct Supplier {\n    bytes32 supplierName;\n    bytes32 purchaseDate;\n    uint256 supplierWt;\n    uint256 warehouseWt;\n    bytes32 goodsType;\n    bytes32 components;\n    uint256 price;\n   }\n\n    struct PlasticTransaction {\n    bytes32 TransactionID;\n    bytes32 CollectonCentre;\n    bytes32 CollectoinDate;\n    uint256 SumittedWt;\n    uint256 AcceptedWt;\n    bytes32 PlasticType;\n    bytes32 ShippingDate;\n    bytes32 ShipmentID;\n    uint256 ShipmentWt;\n    bytes32 ShippingReceivedDate;\n    bytes32 Status;\n    bytes32 UserID;\n   }\n\n\n   bytes32 constant None = bytes32(0);\n\n  address[] public orders;\n  Supplier[] public suppliers;\n  PlasticTransaction[] public transactions;\n\n\n  /**\n   * @dev Create a new order\n   * @param product Is the product name for the order\n   * @param amount Amount of product requested\n   */\n  function create(bytes32 product, uint256 amount)\n    public\n    payable\n    returns (address)\n\n  {\n\n    OrderV1 newOrder = new OrderV1(product, amount, msg.sender);\n    orders.push(newOrder);\n    return newOrder;\n\n  }\n\n  /**\n   * @dev Create a supplier transaction to collect plastic\n  */\n  function createSupplierCollection( bytes32 supplierName, bytes32 purchaseDate,uint256 supplierWt,\n    uint256 warehouseWt,bytes32 goodsType,bytes32 components, uint256 price)\n\n    public\n   {\n    Supplier  memory supplier=Supplier(supplierName,purchaseDate,supplierWt,warehouseWt,goodsType,components,price);\n\n    suppliers.push(supplier);\n\n  }\n\n function createPlasticTransaction( bytes32 transactionID, bytes32 collectonCentre,bytes32 collectionDate,\n    uint256 submittedWt,uint256 acceptedWt,bytes32 plasticType,bytes32 shippingDate,bytes32 shipmentID, uint256 shipmentWt\n    ,bytes32 ShippingReceivedDate,bytes32 status,bytes32 userid)\n\n    public\n   {\n    PlasticTransaction  memory transaction=PlasticTransaction(transactionID,collectonCentre,collectionDate,submittedWt,acceptedWt,\n    plasticType,shippingDate,shipmentID,shipmentWt,ShippingReceivedDate,status,userid);\n    transactions.push(transaction);\n  }\n\n  /**\n   * @dev Returns how many orders have been created\n   */\n  function getAmount()\n    public\n    view\n    returns(uint)\n  {\n    return (orders.length);\n  }\n\n   function baz(uint32 x) public pure returns (uint32)\n   {\n     return  x ;\n   }\n\n}\n",
  "sourcePath": "/app/contracts/OrdersV1.sol",
  "compiler": {
    "name": "solc",
    "version": "0.4.24+commit.e67f0147.Emscripten.clang"
  },
  "schemaVersion": "3.3.3",
  "updatedAt": "2020-12-21T17:25:12.329Z",
  "networkType": "ethereum",
  "devdoc": {
    "methods": {
      "create(bytes32,uint256)": {
        "details": "Create a new order",
        "params": {
          "amount": "Amount of product requested",
          "product": "Is the product name for the order"
        }
      },
      "createSupplierCollection(bytes32,bytes32,uint256,uint256,bytes32,bytes32,uint256)": {
        "details": "Create a supplier transaction to collect plastic"
      },
      "getAmount()": {
        "details": "Returns how many orders have been created"
      }
    },
    "title": "Parent contract for each order"
  },
  "userdoc": {
    "methods": {}
  }
}