{
  "contractName": "OrderV1",
  "abi": [
    {
      "constant": true,
      "inputs": [],
      "name": "supermarket",
      "outputs": [
        {
          "name": "",
          "type": "address"
        }
      ],
      "payable": false,
      "stateMutability": "view",
      "type": "function"
    },
    {
      "constant": false,
      "inputs": [
        {
          "name": "_supermarket",
          "type": "address"
        },
        {
          "name": "_farmer",
          "type": "address"
        },
        {
          "name": "_auditor",
          "type": "address"
        },
        {
          "name": "_warehouse",
          "type": "address"
        },
        {
          "name": "_distributor",
          "type": "address"
        }
      ],
      "name": "setOwners",
      "outputs": [],
      "payable": false,
      "stateMutability": "nonpayable",
      "type": "function"
    },
    {
      "constant": true,
      "inputs": [],
      "name": "contractCreator",
      "outputs": [
        {
          "name": "",
          "type": "address"
        }
      ],
      "payable": false,
      "stateMutability": "view",
      "type": "function"
    },
    {
      "constant": true,
      "inputs": [],
      "name": "auditor",
      "outputs": [
        {
          "name": "",
          "type": "address"
        }
      ],
      "payable": false,
      "stateMutability": "view",
      "type": "function"
    },
    {
      "constant": false,
      "inputs": [],
      "name": "unpause",
      "outputs": [],
      "payable": false,
      "stateMutability": "nonpayable",
      "type": "function"
    },
    {
      "constant": true,
      "inputs": [],
      "name": "paused",
      "outputs": [
        {
          "name": "",
          "type": "bool"
        }
      ],
      "payable": false,
      "stateMutability": "view",
      "type": "function"
    },
    {
      "constant": false,
      "inputs": [],
      "name": "pause",
      "outputs": [],
      "payable": false,
      "stateMutability": "nonpayable",
      "type": "function"
    },
    {
      "constant": true,
      "inputs": [
        {
          "name": "",
          "type": "uint256"
        }
      ],
      "name": "locationHistory",
      "outputs": [
        {
          "name": "latitude",
          "type": "bytes32"
        },
        {
          "name": "longitude",
          "type": "bytes32"
        },
        {
          "name": "who",
          "type": "address"
        }
      ],
      "payable": false,
      "stateMutability": "view",
      "type": "function"
    },
    {
      "constant": true,
      "inputs": [],
      "name": "auditDocument",
      "outputs": [
        {
          "name": "",
          "type": "address"
        }
      ],
      "payable": false,
      "stateMutability": "view",
      "type": "function"
    },
    {
      "constant": true,
      "inputs": [],
      "name": "warehouse",
      "outputs": [
        {
          "name": "",
          "type": "address"
        }
      ],
      "payable": false,
      "stateMutability": "view",
      "type": "function"
    },
    {
      "constant": true,
      "inputs": [
        {
          "name": "",
          "type": "uint256"
        }
      ],
      "name": "history",
      "outputs": [
        {
          "name": "who",
          "type": "address"
        },
        {
          "name": "action",
          "type": "bytes32"
        },
        {
          "name": "when",
          "type": "uint32"
        }
      ],
      "payable": false,
      "stateMutability": "view",
      "type": "function"
    },
    {
      "constant": true,
      "inputs": [],
      "name": "subState",
      "outputs": [
        {
          "name": "",
          "type": "uint8"
        }
      ],
      "payable": false,
      "stateMutability": "view",
      "type": "function"
    },
    {
      "constant": true,
      "inputs": [],
      "name": "distributor",
      "outputs": [
        {
          "name": "",
          "type": "address"
        }
      ],
      "payable": false,
      "stateMutability": "view",
      "type": "function"
    },
    {
      "constant": true,
      "inputs": [],
      "name": "state",
      "outputs": [
        {
          "name": "",
          "type": "uint8"
        }
      ],
      "payable": false,
      "stateMutability": "view",
      "type": "function"
    },
    {
      "constant": true,
      "inputs": [],
      "name": "meta",
      "outputs": [
        {
          "name": "product",
          "type": "bytes32"
        },
        {
          "name": "amount",
          "type": "uint256"
        },
        {
          "name": "revoked",
          "type": "bool"
        }
      ],
      "payable": false,
      "stateMutability": "view",
      "type": "function"
    },
    {
      "constant": true,
      "inputs": [],
      "name": "farmer",
      "outputs": [
        {
          "name": "",
          "type": "address"
        }
      ],
      "payable": false,
      "stateMutability": "view",
      "type": "function"
    },
    {
      "inputs": [
        {
          "name": "product",
          "type": "bytes32"
        },
        {
          "name": "amount",
          "type": "uint256"
        },
        {
          "name": "creator",
          "type": "address"
        }
      ],
      "payable": false,
      "stateMutability": "nonpayable",
      "type": "constructor"
    },
    {
      "constant": false,
      "inputs": [],
      "name": "approve",
      "outputs": [],
      "payable": false,
      "stateMutability": "nonpayable",
      "type": "function"
    },
    {
      "constant": false,
      "inputs": [],
      "name": "notApprove",
      "outputs": [],
      "payable": false,
      "stateMutability": "nonpayable",
      "type": "function"
    },
    {
      "constant": false,
      "inputs": [],
      "name": "validated",
      "outputs": [],
      "payable": false,
      "stateMutability": "nonpayable",
      "type": "function"
    },
    {
      "constant": false,
      "inputs": [],
      "name": "invalid",
      "outputs": [],
      "payable": false,
      "stateMutability": "nonpayable",
      "type": "function"
    },
    {
      "constant": false,
      "inputs": [
        {
          "name": "document",
          "type": "address"
        }
      ],
      "name": "storeAuditDocument",
      "outputs": [],
      "payable": false,
      "stateMutability": "nonpayable",
      "type": "function"
    },
    {
      "constant": false,
      "inputs": [],
      "name": "warehouseReceivedOrder",
      "outputs": [],
      "payable": false,
      "stateMutability": "nonpayable",
      "type": "function"
    },
    {
      "constant": false,
      "inputs": [],
      "name": "warehouseNotReceivedOrder",
      "outputs": [],
      "payable": false,
      "stateMutability": "nonpayable",
      "type": "function"
    },
    {
      "constant": false,
      "inputs": [],
      "name": "warehouseReleasedOrder",
      "outputs": [],
      "payable": false,
      "stateMutability": "nonpayable",
      "type": "function"
    },
    {
      "constant": false,
      "inputs": [],
      "name": "warehouseIssueOrder",
      "outputs": [],
      "payable": false,
      "stateMutability": "nonpayable",
      "type": "function"
    },
    {
      "constant": false,
      "inputs": [],
      "name": "receivedAndInTransit",
      "outputs": [],
      "payable": false,
      "stateMutability": "nonpayable",
      "type": "function"
    },
    {
      "constant": false,
      "inputs": [],
      "name": "neverReceived",
      "outputs": [],
      "payable": false,
      "stateMutability": "nonpayable",
      "type": "function"
    },
    {
      "constant": false,
      "inputs": [],
      "name": "confirmDelivery",
      "outputs": [],
      "payable": false,
      "stateMutability": "nonpayable",
      "type": "function"
    },
    {
      "constant": false,
      "inputs": [],
      "name": "notDelivered",
      "outputs": [],
      "payable": false,
      "stateMutability": "nonpayable",
      "type": "function"
    },
    {
      "constant": false,
      "inputs": [],
      "name": "revoke",
      "outputs": [],
      "payable": false,
      "stateMutability": "nonpayable",
      "type": "function"
    },
    {
      "constant": true,
      "inputs": [],
      "name": "getHistoryLength",
      "outputs": [
        {
          "name": "",
          "type": "uint256"
        }
      ],
      "payable": false,
      "stateMutability": "view",
      "type": "function"
    },
    {
      "constant": false,
      "inputs": [
        {
          "name": "latitude",
          "type": "bytes32"
        },
        {
          "name": "longitude",
          "type": "bytes32"
        }
      ],
      "name": "updateLocation",
      "outputs": [],
      "payable": false,
      "stateMutability": "nonpayable",
      "type": "function"
    },
    {
      "constant": true,
      "inputs": [],
      "name": "getLocationLength",
      "outputs": [
        {
          "name": "",
          "type": "uint256"
        }
      ],
      "payable": false,
      "stateMutability": "view",
      "type": "function"
    }
  ],
  "bytecode": "0x60806040526000600560146101000a81548160ff02191690831515021790555034801561002b57600080fd5b5060405160608061313f833981018060405281019080805190602001909291908051906020019092919080519060200190929190505050806000806101000a81548173ffffffffffffffffffffffffffffffffffffffff021916908373ffffffffffffffffffffffffffffffffffffffff1602179055508260066000018160001916905550816006600101819055506000600660020160006101000a81548160ff0219169083151502179055506000600c60006101000a81548160ff0219169083600e8111156100f757fe5b02179055506000600c60016101000a81548160ff0219169083600281111561011b57fe5b021790555050505061300d806101326000396000f3006080604052600436106101a1576000357c0100000000000000000000000000000000000000000000000000000000900463ffffffff16806301c195eb146101a6578063029ee155146101bd57806303b2e373146101d4578063072b78881461022b5780630df5780c146102ee57806311d72e471461030557806312424e3f1461031c5780631e2f73b1146103335780632828dbe91461038a5780633c37a048146103a15780633ec045a6146103cc5780633f4ba83a146104235780634c7be5601461043a5780635478f468146104795780635c975abb146104a45780635e10177b146104d357806377684862146104ea57806380a202961461052d5780638456cb591461054457806394c23ffd1461055b57806395b6f31a146105e65780639b6227691461063d578063a7a38f0b14610694578063b6549f7514610723578063bc779a6f1461073a578063bde9e40e14610773578063be9f5beb1461078a578063bfe10928146107a1578063c19d93fb146107f8578063c885044e14610831578063d811fcf014610876578063efb37a39146108cd578063f1ab1aa6146108e4575b600080fd5b3480156101b257600080fd5b506101bb6108fb565b005b3480156101c957600080fd5b506101d2610aae565b005b3480156101e057600080fd5b506101e9610c61565b604051808273ffffffffffffffffffffffffffffffffffffffff1673ffffffffffffffffffffffffffffffffffffffff16815260200191505060405180910390f35b34801561023757600080fd5b506102ec600480360381019080803573ffffffffffffffffffffffffffffffffffffffff169060200190929190803573ffffffffffffffffffffffffffffffffffffffff169060200190929190803573ffffffffffffffffffffffffffffffffffffffff169060200190929190803573ffffffffffffffffffffffffffffffffffffffff169060200190929190803573ffffffffffffffffffffffffffffffffffffffff169060200190929190505050610c87565b005b3480156102fa57600080fd5b50610303610ebd565b005b34801561031157600080fd5b5061031a611070565b005b34801561032857600080fd5b50610331611249565b005b34801561033f57600080fd5b506103486113fc565b604051808273ffffffffffffffffffffffffffffffffffffffff1673ffffffffffffffffffffffffffffffffffffffff16815260200191505060405180910390f35b34801561039657600080fd5b5061039f611421565b005b3480156103ad57600080fd5b506103b66115d4565b6040518082815260200191505060405180910390f35b3480156103d857600080fd5b506103e16115e1565b604051808273ffffffffffffffffffffffffffffffffffffffff1673ffffffffffffffffffffffffffffffffffffffff16815260200191505060405180910390f35b34801561042f57600080fd5b50610438611607565b005b34801561044657600080fd5b50610477600480360381019080803560001916906020019092919080356000191690602001909291905050506118e1565b005b34801561048557600080fd5b5061048e611c58565b6040518082815260200191505060405180910390f35b3480156104b057600080fd5b506104b9611c65565b604051808215151515815260200191505060405180910390f35b3480156104df57600080fd5b506104e8611c78565b005b3480156104f657600080fd5b5061052b600480360381019080803573ffffffffffffffffffffffffffffffffffffffff169060200190929190505050611e51565b005b34801561053957600080fd5b50610542612046565b005b34801561055057600080fd5b506105596121f9565b005b34801561056757600080fd5b50610586600480360381019080803590602001909291905050506124d4565b60405180846000191660001916815260200183600019166000191681526020018273ffffffffffffffffffffffffffffffffffffffff1673ffffffffffffffffffffffffffffffffffffffff168152602001935050505060405180910390f35b3480156105f257600080fd5b506105fb61252d565b604051808273ffffffffffffffffffffffffffffffffffffffff1673ffffffffffffffffffffffffffffffffffffffff16815260200191505060405180910390f35b34801561064957600080fd5b50610652612553565b604051808273ffffffffffffffffffffffffffffffffffffffff1673ffffffffffffffffffffffffffffffffffffffff16815260200191505060405180910390f35b3480156106a057600080fd5b506106bf60048036038101908080359060200190929190505050612579565b604051808473ffffffffffffffffffffffffffffffffffffffff1673ffffffffffffffffffffffffffffffffffffffff16815260200183600019166000191681526020018263ffffffff1663ffffffff168152602001935050505060405180910390f35b34801561072f57600080fd5b506107386125e2565b005b34801561074657600080fd5b5061074f612792565b6040518082600281111561075f57fe5b60ff16815260200191505060405180910390f35b34801561077f57600080fd5b506107886127a5565b005b34801561079657600080fd5b5061079f612958565b005b3480156107ad57600080fd5b506107b6612b0a565b604051808273ffffffffffffffffffffffffffffffffffffffff1673ffffffffffffffffffffffffffffffffffffffff16815260200191505060405180910390f35b34801561080457600080fd5b5061080d612b30565b6040518082600e81111561081d57fe5b60ff16815260200191505060405180910390f35b34801561083d57600080fd5b50610846612b43565b60405180846000191660001916815260200183815260200182151515158152602001935050505060405180910390f35b34801561088257600080fd5b5061088b612b68565b604051808273ffffffffffffffffffffffffffffffffffffffff1673ffffffffffffffffffffffffffffffffffffffff16815260200191505060405180910390f35b3480156108d957600080fd5b506108e2612b8e565b005b3480156108f057600080fd5b506108f9612d41565b005b600260009054906101000a900473ffffffffffffffffffffffffffffffffffffffff1673ffffffffffffffffffffffffffffffffffffffff163373ffffffffffffffffffffffffffffffffffffffff161415156109c0576040517f08c379a000000000000000000000000000000000000000000000000000000000815260040180806020018281038252601b8152602001807f4f6e6c7920746865204661726d657220686173206163636573732e000000000081525060200191505060405180910390fd5b600080600e8111156109ce57fe5b600c60009054906101000a900460ff16600e8111156109e957fe5b141515610a5e576040517f08c379a000000000000000000000000000000000000000000000000000000000815260040180806020018281038252600e8152602001807f496e76616c69642073746174652e00000000000000000000000000000000000081525060200191505060405180910390fd5b610a877f4e6f7420417070726f7665640000000000000000000000000000000000000000612ef4565b6008600c60006101000a81548160ff0219169083600e811115610aa657fe5b021790555050565b600460009054906101000a900473ffffffffffffffffffffffffffffffffffffffff1673ffffffffffffffffffffffffffffffffffffffff163373ffffffffffffffffffffffffffffffffffffffff16141515610b73576040517f08c379a000000000000000000000000000000000000000000000000000000000815260040180806020018281038252601e8152602001807f4f6e6c79207468652057617265686f75736520686173206163636573732e000081525060200191505060405180910390fd5b600480600e811115610b8157fe5b600c60009054906101000a900460ff16600e811115610b9c57fe5b141515610c11576040517f08c379a000000000000000000000000000000000000000000000000000000000815260040180806020018281038252600e8152602001807f496e76616c69642073746174652e00000000000000000000000000000000000081525060200191505060405180910390fd5b6005600c60006101000a81548160ff0219169083600e811115610c3057fe5b0217905550610c5e7f52656c6561736564000000000000000000000000000000000000000000000000612ef4565b50565b600160009054906101000a900473ffffffffffffffffffffffffffffffffffffffff1681565b6000809054906101000a900473ffffffffffffffffffffffffffffffffffffffff1673ffffffffffffffffffffffffffffffffffffffff163373ffffffffffffffffffffffffffffffffffffffff16141515610d71576040517f08c379a00000000000000000000000000000000000000000000000000000000081526004018080602001828103825260258152602001807f4f6e6c792074686520636f6e74726163742063726561746f722068617320616381526020017f636573732e00000000000000000000000000000000000000000000000000000081525060400191505060405180910390fd5b84600160006101000a81548173ffffffffffffffffffffffffffffffffffffffff021916908373ffffffffffffffffffffffffffffffffffffffff16021790555083600260006101000a81548173ffffffffffffffffffffffffffffffffffffffff021916908373ffffffffffffffffffffffffffffffffffffffff16021790555082600360006101000a81548173ffffffffffffffffffffffffffffffffffffffff021916908373ffffffffffffffffffffffffffffffffffffffff16021790555081600460006101000a81548173ffffffffffffffffffffffffffffffffffffffff021916908373ffffffffffffffffffffffffffffffffffffffff16021790555080600560006101000a81548173ffffffffffffffffffffffffffffffffffffffff021916908373ffffffffffffffffffffffffffffffffffffffff1602179055505050505050565b600460009054906101000a900473ffffffffffffffffffffffffffffffffffffffff1673ffffffffffffffffffffffffffffffffffffffff163373ffffffffffffffffffffffffffffffffffffffff16141515610f82576040517f08c379a000000000000000000000000000000000000000000000000000000000815260040180806020018281038252601e8152602001807f4f6e6c79207468652057617265686f75736520686173206163636573732e000081525060200191505060405180910390fd5b600380600e811115610f9057fe5b600c60009054906101000a900460ff16600e811115610fab57fe5b141515611020576040517f08c379a000000000000000000000000000000000000000000000000000000000815260040180806020018281038252600e8152602001807f496e76616c69642073746174652e00000000000000000000000000000000000081525060200191505060405180910390fd5b600a600c60006101000a81548160ff0219169083600e81111561103f57fe5b021790555061106d7f446964206e6f7420726563656976650000000000000000000000000000000000612ef4565b50565b600160009054906101000a900473ffffffffffffffffffffffffffffffffffffffff1673ffffffffffffffffffffffffffffffffffffffff163373ffffffffffffffffffffffffffffffffffffffff1614151561115b576040517f08c379a00000000000000000000000000000000000000000000000000000000081526004018080602001828103825260218152602001807f4f6e6c7920746865205375706572204d61726b6574206861732061636365737381526020017f2e0000000000000000000000000000000000000000000000000000000000000081525060400191505060405180910390fd5b600680600e81111561116957fe5b600c60009054906101000a900460ff16600e81111561118457fe5b1415156111f9576040517f08c379a000000000000000000000000000000000000000000000000000000000815260040180806020018281038252600e8152602001807f496e76616c69642073746174652e00000000000000000000000000000000000081525060200191505060405180910390fd5b6112227f4e6f742044656c69766572656400000000000000000000000000000000000000612ef4565b600d600c60006101000a81548160ff0219169083600e81111561124157fe5b021790555050565b600260009054906101000a900473ffffffffffffffffffffffffffffffffffffffff1673ffffffffffffffffffffffffffffffffffffffff163373ffffffffffffffffffffffffffffffffffffffff1614151561130e576040517f08c379a000000000000000000000000000000000000000000000000000000000815260040180806020018281038252601b8152602001807f4f6e6c7920746865204661726d657220686173206163636573732e000000000081525060200191505060405180910390fd5b600080600e81111561131c57fe5b600c60009054906101000a900460ff16600e81111561133757fe5b1415156113ac576040517f08c379a000000000000000000000000000000000000000000000000000000000815260040180806020018281038252600e8152602001807f496e76616c69642073746174652e00000000000000000000000000000000000081525060200191505060405180910390fd5b6113d57f417070726f766564000000000000000000000000000000000000000000000000612ef4565b6001600c60006101000a81548160ff0219169083600e8111156113f457fe5b021790555050565b6000809054906101000a900473ffffffffffffffffffffffffffffffffffffffff1681565b600560009054906101000a900473ffffffffffffffffffffffffffffffffffffffff1673ffffffffffffffffffffffffffffffffffffffff163373ffffffffffffffffffffffffffffffffffffffff161415156114e6576040517f08c379a00000000000000000000000000000000000000000000000000000000081526004018080602001828103825260208152602001807f4f6e6c7920746865204469737472696275746f7220686173206163636573732e81525060200191505060405180910390fd5b600580600e8111156114f457fe5b600c60009054906101000a900460ff16600e81111561150f57fe5b141515611584576040517f08c379a000000000000000000000000000000000000000000000000000000000815260040180806020018281038252600e8152602001807f496e76616c69642073746174652e00000000000000000000000000000000000081525060200191505060405180910390fd5b6115ad7f496e205472616e73697400000000000000000000000000000000000000000000612ef4565b6006600c60006101000a81548160ff0219169083600e8111156115cc57fe5b021790555050565b6000600b80549050905090565b600360009054906101000a900473ffffffffffffffffffffffffffffffffffffffff1681565b6000809054906101000a900473ffffffffffffffffffffffffffffffffffffffff1673ffffffffffffffffffffffffffffffffffffffff163373ffffffffffffffffffffffffffffffffffffffff1614806116af5750600160009054906101000a900473ffffffffffffffffffffffffffffffffffffffff1673ffffffffffffffffffffffffffffffffffffffff163373ffffffffffffffffffffffffffffffffffffffff16145b806117075750600260009054906101000a900473ffffffffffffffffffffffffffffffffffffffff1673ffffffffffffffffffffffffffffffffffffffff163373ffffffffffffffffffffffffffffffffffffffff16145b8061175f5750600360009054906101000a900473ffffffffffffffffffffffffffffffffffffffff1673ffffffffffffffffffffffffffffffffffffffff163373ffffffffffffffffffffffffffffffffffffffff16145b806117b75750600460009054906101000a900473ffffffffffffffffffffffffffffffffffffffff1673ffffffffffffffffffffffffffffffffffffffff163373ffffffffffffffffffffffffffffffffffffffff16145b8061180f5750600560009054906101000a900473ffffffffffffffffffffffffffffffffffffffff1673ffffffffffffffffffffffffffffffffffffffff163373ffffffffffffffffffffffffffffffffffffffff16145b15156118a9576040517f08c379a00000000000000000000000000000000000000000000000000000000081526004018080602001828103825260258152602001807f4f6e6c792074686520636f6e7472616374206f776e657273206861766520616381526020017f636573732e00000000000000000000000000000000000000000000000000000081525060400191505060405180910390fd5b600560149054906101000a900460ff1615156118c457600080fd5b6000600560146101000a81548160ff021916908315150217905550565b6000809054906101000a900473ffffffffffffffffffffffffffffffffffffffff1673ffffffffffffffffffffffffffffffffffffffff163373ffffffffffffffffffffffffffffffffffffffff1614806119895750600160009054906101000a900473ffffffffffffffffffffffffffffffffffffffff1673ffffffffffffffffffffffffffffffffffffffff163373ffffffffffffffffffffffffffffffffffffffff16145b806119e15750600260009054906101000a900473ffffffffffffffffffffffffffffffffffffffff1673ffffffffffffffffffffffffffffffffffffffff163373ffffffffffffffffffffffffffffffffffffffff16145b80611a395750600360009054906101000a900473ffffffffffffffffffffffffffffffffffffffff1673ffffffffffffffffffffffffffffffffffffffff163373ffffffffffffffffffffffffffffffffffffffff16145b80611a915750600460009054906101000a900473ffffffffffffffffffffffffffffffffffffffff1673ffffffffffffffffffffffffffffffffffffffff163373ffffffffffffffffffffffffffffffffffffffff16145b80611ae95750600560009054906101000a900473ffffffffffffffffffffffffffffffffffffffff1673ffffffffffffffffffffffffffffffffffffffff163373ffffffffffffffffffffffffffffffffffffffff16145b1515611b83576040517f08c379a00000000000000000000000000000000000000000000000000000000081526004018080602001828103825260258152602001807f4f6e6c792074686520636f6e7472616374206f776e657273206861766520616381526020017f636573732e00000000000000000000000000000000000000000000000000000081525060400191505060405180910390fd5b600b60606040519081016040528084600019168152602001836000191681526020013373ffffffffffffffffffffffffffffffffffffffff1681525090806001815401808255809150509060018203906000526020600020906003020160009091929091909150600082015181600001906000191690556020820151816001019060001916905560408201518160020160006101000a81548173ffffffffffffffffffffffffffffffffffffffff021916908373ffffffffffffffffffffffffffffffffffffffff1602179055505050505050565b6000600a80549050905090565b600560149054906101000a900460ff1681565b600160009054906101000a900473ffffffffffffffffffffffffffffffffffffffff1673ffffffffffffffffffffffffffffffffffffffff163373ffffffffffffffffffffffffffffffffffffffff16141515611d63576040517f08c379a00000000000000000000000000000000000000000000000000000000081526004018080602001828103825260218152602001807f4f6e6c7920746865205375706572204d61726b6574206861732061636365737381526020017f2e0000000000000000000000000000000000000000000000000000000000000081525060400191505060405180910390fd5b600680600e811115611d7157fe5b600c60009054906101000a900460ff16600e811115611d8c57fe5b141515611e01576040517f08c379a000000000000000000000000000000000000000000000000000000000815260040180806020018281038252600e8152602001807f496e76616c69642073746174652e00000000000000000000000000000000000081525060200191505060405180910390fd5b611e2a7f436f6e6669726d65642044656c69766572790000000000000000000000000000612ef4565b6007600c60006101000a81548160ff0219169083600e811115611e4957fe5b021790555050565b600360009054906101000a900473ffffffffffffffffffffffffffffffffffffffff1673ffffffffffffffffffffffffffffffffffffffff163373ffffffffffffffffffffffffffffffffffffffff16141515611f16576040517f08c379a000000000000000000000000000000000000000000000000000000000815260040180806020018281038252601c8152602001807f4f6e6c79207468652041756469746f7220686173206163636573732e0000000081525060200191505060405180910390fd5b600280600e811115611f2457fe5b600c60009054906101000a900460ff16600e811115611f3f57fe5b141515611fb4576040517f08c379a000000000000000000000000000000000000000000000000000000000815260040180806020018281038252600e8152602001807f496e76616c69642073746174652e00000000000000000000000000000000000081525060200191505060405180910390fd5b81600960006101000a81548173ffffffffffffffffffffffffffffffffffffffff021916908373ffffffffffffffffffffffffffffffffffffffff16021790555061201e7f53746f72656420646f63756d656e740000000000000000000000000000000000612ef4565b6003600c60006101000a81548160ff0219169083600e81111561203d57fe5b02179055505050565b600460009054906101000a900473ffffffffffffffffffffffffffffffffffffffff1673ffffffffffffffffffffffffffffffffffffffff163373ffffffffffffffffffffffffffffffffffffffff1614151561210b576040517f08c379a000000000000000000000000000000000000000000000000000000000815260040180806020018281038252601e8152602001807f4f6e6c79207468652057617265686f75736520686173206163636573732e000081525060200191505060405180910390fd5b600380600e81111561211957fe5b600c60009054906101000a900460ff16600e81111561213457fe5b1415156121a9576040517f08c379a000000000000000000000000000000000000000000000000000000000815260040180806020018281038252600e8152602001807f496e76616c69642073746174652e00000000000000000000000000000000000081525060200191505060405180910390fd5b6004600c60006101000a81548160ff0219169083600e8111156121c857fe5b02179055506121f67f5265636569766564000000000000000000000000000000000000000000000000612ef4565b50565b6000809054906101000a900473ffffffffffffffffffffffffffffffffffffffff1673ffffffffffffffffffffffffffffffffffffffff163373ffffffffffffffffffffffffffffffffffffffff1614806122a15750600160009054906101000a900473ffffffffffffffffffffffffffffffffffffffff1673ffffffffffffffffffffffffffffffffffffffff163373ffffffffffffffffffffffffffffffffffffffff16145b806122f95750600260009054906101000a900473ffffffffffffffffffffffffffffffffffffffff1673ffffffffffffffffffffffffffffffffffffffff163373ffffffffffffffffffffffffffffffffffffffff16145b806123515750600360009054906101000a900473ffffffffffffffffffffffffffffffffffffffff1673ffffffffffffffffffffffffffffffffffffffff163373ffffffffffffffffffffffffffffffffffffffff16145b806123a95750600460009054906101000a900473ffffffffffffffffffffffffffffffffffffffff1673ffffffffffffffffffffffffffffffffffffffff163373ffffffffffffffffffffffffffffffffffffffff16145b806124015750600560009054906101000a900473ffffffffffffffffffffffffffffffffffffffff1673ffffffffffffffffffffffffffffffffffffffff163373ffffffffffffffffffffffffffffffffffffffff16145b151561249b576040517f08c379a00000000000000000000000000000000000000000000000000000000081526004018080602001828103825260258152602001807f4f6e6c792074686520636f6e7472616374206f776e657273206861766520616381526020017f636573732e00000000000000000000000000000000000000000000000000000081525060400191505060405180910390fd5b600560149054906101000a900460ff161515156124b757600080fd5b6001600560146101000a81548160ff021916908315150217905550565b600b818154811015156124e357fe5b90600052602060002090600302016000915090508060000154908060010154908060020160009054906101000a900473ffffffffffffffffffffffffffffffffffffffff16905083565b600960009054906101000a900473ffffffffffffffffffffffffffffffffffffffff1681565b600460009054906101000a900473ffffffffffffffffffffffffffffffffffffffff1681565b600a8181548110151561258857fe5b90600052602060002090600302016000915090508060000160009054906101000a900473ffffffffffffffffffffffffffffffffffffffff16908060010154908060020160009054906101000a900463ffffffff16905083565b600260009054906101000a900473ffffffffffffffffffffffffffffffffffffffff1673ffffffffffffffffffffffffffffffffffffffff163373ffffffffffffffffffffffffffffffffffffffff16148061268b5750600360009054906101000a900473ffffffffffffffffffffffffffffffffffffffff1673ffffffffffffffffffffffffffffffffffffffff163373ffffffffffffffffffffffffffffffffffffffff16145b1515612725576040517f08c379a00000000000000000000000000000000000000000000000000000000081526004018080602001828103825260288152602001807f4f6e6c7920746865204661726d657220616e642041756469746f72206861766581526020017f206163636573732e00000000000000000000000000000000000000000000000081525060400191505060405180910390fd5b600e600c60006101000a81548160ff0219169083600e81111561274457fe5b02179055506127727f5265766f6b656400000000000000000000000000000000000000000000000000612ef4565b6001600660020160006101000a81548160ff021916908315150217905550565b600c60019054906101000a900460ff1681565b600360009054906101000a900473ffffffffffffffffffffffffffffffffffffffff1673ffffffffffffffffffffffffffffffffffffffff163373ffffffffffffffffffffffffffffffffffffffff1614151561286a576040517f08c379a000000000000000000000000000000000000000000000000000000000815260040180806020018281038252601c8152602001807f4f6e6c79207468652041756469746f7220686173206163636573732e0000000081525060200191505060405180910390fd5b600180600e81111561287857fe5b600c60009054906101000a900460ff16600e81111561289357fe5b141515612908576040517f08c379a000000000000000000000000000000000000000000000000000000000815260040180806020018281038252600e8152602001807f496e76616c69642073746174652e00000000000000000000000000000000000081525060200191505060405180910390fd5b6129317f4175646974204661696c65640000000000000000000000000000000000000000612ef4565b6009600c60006101000a81548160ff0219169083600e81111561295057fe5b021790555050565b600560009054906101000a900473ffffffffffffffffffffffffffffffffffffffff1673ffffffffffffffffffffffffffffffffffffffff163373ffffffffffffffffffffffffffffffffffffffff16141515612a1d576040517f08c379a00000000000000000000000000000000000000000000000000000000081526004018080602001828103825260208152602001807f4f6e6c7920746865204469737472696275746f7220686173206163636573732e81525060200191505060405180910390fd5b600580600e811115612a2b57fe5b600c60009054906101000a900460ff16600e811115612a4657fe5b141515612abb576040517f08c379a000000000000000000000000000000000000000000000000000000000815260040180806020018281038252600e8152602001807f496e76616c69642073746174652e00000000000000000000000000000000000081525060200191505060405180910390fd5b612ae47f4e65766572205265636569766564000000000000000000000000000000000000612ef4565b600c8060006101000a81548160ff0219169083600e811115612b0257fe5b021790555050565b600560009054906101000a900473ffffffffffffffffffffffffffffffffffffffff1681565b600c60009054906101000a900460ff1681565b60068060000154908060010154908060020160009054906101000a900460ff16905083565b600260009054906101000a900473ffffffffffffffffffffffffffffffffffffffff1681565b600360009054906101000a900473ffffffffffffffffffffffffffffffffffffffff1673ffffffffffffffffffffffffffffffffffffffff163373ffffffffffffffffffffffffffffffffffffffff16141515612c53576040517f08c379a000000000000000000000000000000000000000000000000000000000815260040180806020018281038252601c8152602001807f4f6e6c79207468652041756469746f7220686173206163636573732e0000000081525060200191505060405180910390fd5b600180600e811115612c6157fe5b600c60009054906101000a900460ff16600e811115612c7c57fe5b141515612cf1576040517f08c379a000000000000000000000000000000000000000000000000000000000815260040180806020018281038252600e8152602001807f496e76616c69642073746174652e00000000000000000000000000000000000081525060200191505060405180910390fd5b612d1a7f4175646974656400000000000000000000000000000000000000000000000000612ef4565b6002600c60006101000a81548160ff0219169083600e811115612d3957fe5b021790555050565b600460009054906101000a900473ffffffffffffffffffffffffffffffffffffffff1673ffffffffffffffffffffffffffffffffffffffff163373ffffffffffffffffffffffffffffffffffffffff16141515612e06576040517f08c379a000000000000000000000000000000000000000000000000000000000815260040180806020018281038252601e8152602001807f4f6e6c79207468652057617265686f75736520686173206163636573732e000081525060200191505060405180910390fd5b600480600e811115612e1457fe5b600c60009054906101000a900460ff16600e811115612e2f57fe5b141515612ea4576040517f08c379a000000000000000000000000000000000000000000000000000000000815260040180806020018281038252600e8152602001807f496e76616c69642073746174652e00000000000000000000000000000000000081525060200191505060405180910390fd5b600b600c60006101000a81548160ff0219169083600e811115612ec357fe5b0217905550612ef17f49737375652061742077617265686f7573650000000000000000000000000000612ef4565b50565b600a6060604051908101604052803373ffffffffffffffffffffffffffffffffffffffff168152602001836000191681526020014263ffffffff168152509080600181540180825580915050906001820390600052602060002090600302016000909192909190915060008201518160000160006101000a81548173ffffffffffffffffffffffffffffffffffffffff021916908373ffffffffffffffffffffffffffffffffffffffff1602179055506020820151816001019060001916905560408201518160020160006101000a81548163ffffffff021916908363ffffffff160217905550505050505600a165627a7a72305820c0886025af3d48122a25ce30559478fc6292e4c9f5d3590f5f5d5aa5ac0d5cd30029",
  "source": "/*\n * Copyright 2019 VMware, all rights reserved.\n * This software is released under MIT license.\n * The full license information can be found in LICENSE in the root directory of this project.\n */\n\npragma solidity >=0.4.21 <0.6.0;\n\nimport \"./OrderAccessControl.sol\";\n\n/**\n * @title OrderV1\n */\ncontract OrderV1 is OrderAccessControl {\n\n  // Order meta data\n  struct Meta {\n    bytes32 product;\n    uint amount;\n    bool revoked;\n  }\n\n  // Record\n  struct Record {\n    address who;\n    bytes32 action;\n    uint32 when;\n  }\n\n  // Location of order\n  struct Location {\n    bytes32 latitude;\n    bytes32 longitude;\n    address who;\n  }\n\n  enum State {\n    // Positive states\n    Ordered,\n    Approved,\n    Audited,\n    AuditDocUploaded,\n    AtWarehouse,\n    WarehouseReleased,\n    InTransit,\n    Delivered,\n    // Negative States\n    NotApproved,\n    AuditFailed,\n    NotAtWarehouse,\n    WarehouseIssue,\n    DistributorNeverReceived,\n    NotDelivered,\n    Revoked\n\n  }\n\n  enum SubState {\n    None, Pending, InTransit\n  }\n\n  Meta public meta;\n  address public auditDocument;\n  Record[] public history;\n  Location[] public locationHistory;\n  State public state;\n  SubState public subState;\n\n  modifier inState(State _state) {\n      require(\n          state == _state,\n          \"Invalid state.\"\n      );\n      _;\n  }\n\n  constructor(\n    bytes32 product, uint amount, address creator\n  ) public {\n    contractCreator = creator;\n    meta.product = product;\n    meta.amount = amount;\n    meta.revoked = false;\n\n    state = State.Ordered;\n    subState = SubState.None;\n  }\n\n  //\n  // Order Form\n  //\n\n  /**\n   * @dev Farmer must approve order created by the Supermarket\n   */\n  function approve()\n    public\n    onlyFarmer\n    inState(State.Ordered)\n  {\n    addRecord(bytes32(\"Approved\"));\n    state = State.Approved;\n\n  }\n\n  /**\n   * @dev Farmer doesn't approve the order\n   */\n  function notApprove()\n    public\n    onlyFarmer\n    inState(State.Ordered)\n  {\n    addRecord(bytes32(\"Not Approved\"));\n    state = State.NotApproved;\n\n  }\n\n  /**\n   * @dev Auditor will validate if order is organic\n   */\n  function validated()\n    public\n    onlyAuditor\n    inState(State.Approved)\n  {\n    addRecord(bytes32(\"Audited\"));\n    state = State.Audited;\n  }\n\n  /**\n   * @dev Auditor failed the audit\n   */\n  function invalid()\n    public\n    onlyAuditor\n    inState(State.Approved)\n  {\n    addRecord(bytes32(\"Audit Failed\"));\n    state = State.AuditFailed;\n  }\n\n  /**\n   * @dev Auditor will store the audit document\n   */\n  function storeAuditDocument(address document)\n    public\n    onlyAuditor\n    inState(State.Audited)\n  {\n    auditDocument = document;\n    addRecord(bytes32(\"Stored document\"));\n    state = State.AuditDocUploaded;\n  }\n\n  /**\n   * @dev Warehouse will store the order shipment\n   */\n  function warehouseReceivedOrder()\n    public\n    onlyWarehouse\n    inState(State.AuditDocUploaded)\n  {\n    state = State.AtWarehouse;\n    addRecord(bytes32(\"Received\"));\n  }\n\n  /**\n   * @dev Warehouse didn't receive the order\n   */\n  function warehouseNotReceivedOrder()\n    public\n    onlyWarehouse\n    inState(State.AuditDocUploaded)\n  {\n    state = State.NotAtWarehouse;\n    addRecord(bytes32(\"Did not receive\"));\n  }\n\n  /**\n   * @dev Warehouse releases order to distributor\n   */\n  function warehouseReleasedOrder()\n    public\n    onlyWarehouse\n    inState(State.AtWarehouse)\n  {\n    state = State.WarehouseReleased;\n    addRecord(bytes32(\"Released\"));\n  }\n\n  /**\n   * @dev Warehouse has issue with order\n   */\n  function warehouseIssueOrder()\n    public\n    onlyWarehouse\n    inState(State.AtWarehouse)\n  {\n    state = State.WarehouseIssue;\n    addRecord(bytes32(\"Issue at warehouse\"));\n  }\n\n  /**\n   * @dev Distributor pickups order at warehouse and puts order in transit\n   */\n  function receivedAndInTransit()\n    public\n    onlyDistributor\n    inState(State.WarehouseReleased)\n  {\n    addRecord(bytes32(\"In Transit\"));\n    state = State.InTransit;\n  }\n\n  /**\n   * @dev Distributor never received order\n   */\n  function neverReceived()\n    public\n    onlyDistributor\n    inState(State.WarehouseReleased)\n  {\n    addRecord(bytes32(\"Never Received\"));\n    state = State.DistributorNeverReceived;\n  }\n\n  /**\n   * @dev SuperMarket confirms delivery of order\n   */\n  function confirmDelivery()\n    public\n    onlySupermarket\n    inState(State.InTransit)\n  {\n    addRecord(bytes32(\"Confirmed Delivery\"));\n    state = State.Delivered;\n  }\n\n  /**\n   * @dev SuperMarket didn't receive order\n   */\n  function notDelivered()\n    public\n    onlySupermarket\n    inState(State.InTransit)\n  {\n    addRecord(bytes32(\"Not Delivered\"));\n    state = State.NotDelivered;\n  }\n\n  /**\n   * @dev Farmer or auditor revokes order due to compliance or issues with order\n   */\n  function revoke()\n    public\n    onlyFarmerOrAuditor\n  {\n    state = State.Revoked;\n    addRecord(bytes32(\"Revoked\"));\n    meta.revoked = true;\n  }\n\n  //\n  // Storage\n  //\n\n  /**\n   * @dev Record history\n   * @param action The action of the order\n   */\n  function addRecord(bytes32 action) internal {\n    history.push(Record({\n        who: msg.sender,\n        action: action,\n        when: uint32(now)\n      }));\n  }\n\n  /**\n   * @dev Get order history length\n   */\n  function getHistoryLength()\n    public\n    view\n    returns(uint)\n  {\n    return (history.length);\n  }\n\n\n  /**\n   * @dev Contract owners are allowed to record the contract location\n   * @param latitude The latitudinal coordinate of the order\n   * @param longitude The longitudinal coordinate of the order\n   */\n  function updateLocation(\n    bytes32 latitude, bytes32 longitude\n  )\n    public\n    onlyContractOwners\n  {\n    locationHistory.push(Location({\n        latitude: latitude,\n        longitude: longitude,\n        who: msg.sender\n      }));\n  }\n\n  /**\n   * @dev Get location history length\n   */\n  function getLocationLength()\n    public\n    view\n    returns(uint)\n  {\n    return (locationHistory.length);\n  }\n\n}\n",
  "sourcePath": "/app/contracts/OrderV1.sol",
  "compiler": {
    "name": "solc",
    "version": "0.4.24+commit.e67f0147.Emscripten.clang"
  },
  "schemaVersion": "3.3.3",
  "updatedAt": "2020-12-21T17:24:21.628Z",
  "devdoc": {
    "methods": {
      "approve()": {
        "details": "Farmer must approve order created by the Supermarket"
      },
      "confirmDelivery()": {
        "details": "SuperMarket confirms delivery of order"
      },
      "getHistoryLength()": {
        "details": "Get order history length"
      },
      "getLocationLength()": {
        "details": "Get location history length"
      },
      "invalid()": {
        "details": "Auditor failed the audit"
      },
      "neverReceived()": {
        "details": "Distributor never received order"
      },
      "notApprove()": {
        "details": "Farmer doesn't approve the order"
      },
      "notDelivered()": {
        "details": "SuperMarket didn't receive order"
      },
      "pause()": {
        "details": "Called by any contract owner role to pause the contract. Used only when  a bug or exploit is detected and we need to limit damage."
      },
      "receivedAndInTransit()": {
        "details": "Distributor pickups order at warehouse and puts order in transit"
      },
      "revoke()": {
        "details": "Farmer or auditor revokes order due to compliance or issues with order"
      },
      "setOwners(address,address,address,address,address)": {
        "details": "Assigns a address to contract owners. Only available to the current creator.",
        "params": {
          "_supermarket": "_farmer _auditor _warehouse _distributor addresses of contract owners"
        }
      },
      "storeAuditDocument(address)": {
        "details": "Auditor will store the audit document"
      },
      "unpause()": {
        "details": "Unpauses the smart contract."
      },
      "updateLocation(bytes32,bytes32)": {
        "details": "Contract owners are allowed to record the contract location",
        "params": {
          "latitude": "The latitudinal coordinate of the order",
          "longitude": "The longitudinal coordinate of the order"
        }
      },
      "validated()": {
        "details": "Auditor will validate if order is organic"
      },
      "warehouseIssueOrder()": {
        "details": "Warehouse has issue with order"
      },
      "warehouseNotReceivedOrder()": {
        "details": "Warehouse didn't receive the order"
      },
      "warehouseReceivedOrder()": {
        "details": "Warehouse will store the order shipment"
      },
      "warehouseReleasedOrder()": {
        "details": "Warehouse releases order to distributor"
      }
    },
    "title": "OrderV1"
  },
  "userdoc": {
    "methods": {}
  }
}