{
  "contractName": "GasEstimator",
  "abi": [
    {
      "anonymous": false,
      "inputs": [
        {
          "indexed": false,
          "internalType": "address",
          "name": "_sender",
          "type": "address"
        },
        {
          "indexed": false,
          "internalType": "string",
          "name": "_oldGreeting",
          "type": "string"
        },
        {
          "indexed": false,
          "internalType": "string",
          "name": "_newGreeting",
          "type": "string"
        }
      ],
      "name": "NewGreetingEvent",
      "type": "event"
    },
    {
      "inputs": [
        {
          "internalType": "string",
          "name": "_newGreeting",
          "type": "string"
        }
      ],
      "name": "setGreeting",
      "outputs": [],
      "stateMutability": "nonpayable",
      "type": "function"
    },
    {
      "inputs": [],
      "name": "getGreeting",
      "outputs": [
        {
          "internalType": "string",
          "name": "",
          "type": "string"
        }
      ],
      "stateMutability": "view",
      "type": "function",
      "constant": true
    },
    {
      "inputs": [],
      "name": "hugeLoopPure",
      "outputs": [],
      "stateMutability": "pure",
      "type": "function",
      "constant": true
    },
    {
      "inputs": [],
      "name": "infiniteLoopPure",
      "outputs": [],
      "stateMutability": "pure",
      "type": "function",
      "constant": true
    }
  ],
  "bytecode": "0x60806040526040518060400160405280601e81526020017f44656661756c742d4772656574696e672d46726f6d2d536f6c696469747900008152506000908051906020019061004f929190610080565b506000600160006101000a81548161ffff021916908361ffff16021790555034801561007a57600080fd5b5061011d565b828054600181600116156101000203166002900490600052602060002090601f016020900481019282601f106100c157805160ff19168380011785556100ef565b828001600101855582156100ef579182015b828111156100ee5782518255916020019190600101906100d3565b5b5090506100fc9190610100565b5090565b5b80821115610119576000816000905550600101610101565b5090565b6104ee8061012c6000396000f3fe608060405234801561001057600080fd5b506004361061004c5760003560e01c8063a413686214610051578063e26fa9641461010c578063eef0f56d14610116578063fe50cc7214610120575b600080fd5b61010a6004803603602081101561006757600080fd5b810190808035906020019064010000000081111561008457600080fd5b82018360208201111561009657600080fd5b803590602001918460018302840111640100000000831117156100b857600080fd5b91908080601f016020809104026020016040519081016040528093929190818152602001838380828437600081840152601f19601f8201169050808301925050505050505091929192905050506101a3565b005b610114610332565b005b61011e610361565b005b610128610379565b6040518080602001828103825283818151815260200191508051906020019080838360005b8381101561016857808201518184015260208101905061014d565b50505050905090810190601f1680156101955780820380516001836020036101000a031916815260200191505b509250505060405180910390f35b7fb1a5fc168c026acfb50d8684803199dc53422383d6635a074402b33c17b2ee3833600083604051808473ffffffffffffffffffffffffffffffffffffffff16815260200180602001806020018381038352858181546001816001161561010002031660029004815260200191508054600181600116156101000203166002900480156102715780601f1061024657610100808354040283529160200191610271565b820191906000526020600020905b81548152906001019060200180831161025457829003601f168201915b5050838103825284818151815260200191508051906020019080838360005b838110156102ab578082015181840152602081019050610290565b50505050905090810190601f1680156102d85780820380516001836020036101000a031916815260200191505b509550505050505060405180910390a180600090805190602001906102fe92919061041b565b506001600081819054906101000a900461ffff1660010191906101000a81548161ffff021916908361ffff16021790555050565b600080600091505b617d008263ffffffff16101561035d57806001019050818060010192505061033a565b5050565b60005b60011561037657600181019050610364565b50565b606060008054600181600116156101000203166002900480601f0160208091040260200160405190810160405280929190818152602001828054600181600116156101000203166002900480156104115780601f106103e657610100808354040283529160200191610411565b820191906000526020600020905b8154815290600101906020018083116103f457829003601f168201915b5050505050905090565b828054600181600116156101000203166002900490600052602060002090601f016020900481019282601f1061045c57805160ff191683800117855561048a565b8280016001018555821561048a579182015b8281111561048957825182559160200191906001019061046e565b5b509050610497919061049b565b5090565b5b808211156104b457600081600090555060010161049c565b509056fea26469706673582212207af9eb9d27e03b1d8409044f9a4da062219a646bb2c822b5f89d1fb2d878e13664736f6c63430007000033",
  "immutableReferences": {},
  "source": "// SPDX-License-Identifier: MIT\npragma solidity >=0.4.22 <0.9.0;\n\ncontract GasEstimator {\n    string greeting = \"Default-Greeting-From-Solidity\";\n    uint16 count = 0;\n\n    function setGreeting(string memory _newGreeting) public {\n        emit NewGreetingEvent(msg.sender, greeting, _newGreeting);\n        greeting = _newGreeting;\n        ++count; \n    }\n\n    // update text\n    function getGreeting() public view returns (string memory) {\n        return greeting;\n    }\n\n    function hugeLoopPure() public pure {\n        uint32 i = 0;\n        uint32 j = 0;\n        for (i = 0; i < 32000; i++) {\n            ++j;\n        }\n    }\n\n    function infiniteLoopPure() public pure {\n        uint32 i = 0;\n        while (true) {\n            i += 1;\n        }\n    }\n\n    /*function infiniteLoopView() public view returns (uint16 count) {\n        uint32 ii = 0;\n        while (true) {\n            ii += 1;\n        }\n        return count;\n    }*/\n\n    event NewGreetingEvent(address _sender, string _oldGreeting, string _newGreeting);\n}",
  "sourcePath": "/Users/malepatia/Workspace/dapps/ethers_exp/contracts/GasEstimator.sol",
  "compiler": {
    "name": "solc",
    "version": "0.7.0+commit.9e61f92b.Emscripten.clang"
  },
  "schemaVersion": "3.4.9",
  "updatedAt": "2022-09-14T12:38:44.482Z",
  "networkType": "ethereum",
  "devdoc": {
    "kind": "dev",
    "methods": {},
    "version": 1
  },
  "userdoc": {
    "kind": "user",
    "methods": {},
    "version": 1
  }
}