{
  "contractName": "Greetings",
  "abi": [
    {
      "anonymous": false,
      "inputs": [
        {
          "indexed": false,
          "internalType": "address",
          "name": "_sender",
          "type": "address"
        },
        {
          "indexed": false,
          "internalType": "string",
          "name": "_oldGreeting",
          "type": "string"
        },
        {
          "indexed": false,
          "internalType": "string",
          "name": "_newGreeting",
          "type": "string"
        }
      ],
      "name": "NewGreetingEvent",
      "type": "event"
    },
    {
      "inputs": [
        {
          "internalType": "string",
          "name": "_newGreeting",
          "type": "string"
        }
      ],
      "name": "setGreeting",
      "outputs": [],
      "stateMutability": "nonpayable",
      "type": "function"
    },
    {
      "inputs": [],
      "name": "getGreeting",
      "outputs": [
        {
          "internalType": "string",
          "name": "",
          "type": "string"
        }
      ],
      "stateMutability": "view",
      "type": "function",
      "constant": true
    }
  ],
  "bytecode": "0x60806040526040518060400160405280601e81526020017f44656661756c742d4772656574696e672d46726f6d2d536f6c696469747900008152506000908051906020019061004f929190610080565b506000600160006101000a81548161ffff021916908361ffff16021790555034801561007a57600080fd5b5061011d565b828054600181600116156101000203166002900490600052602060002090601f016020900481019282601f106100c157805160ff19168380011785556100ef565b828001600101855582156100ef579182015b828111156100ee5782518255916020019190600101906100d3565b5b5090506100fc9190610100565b5090565b5b80821115610119576000816000905550600101610101565b5090565b61047d8061012c6000396000f3fe608060405234801561001057600080fd5b50600436106100365760003560e01c8063a41368621461003b578063fe50cc72146100f6575b600080fd5b6100f46004803603602081101561005157600080fd5b810190808035906020019064010000000081111561006e57600080fd5b82018360208201111561008057600080fd5b803590602001918460018302840111640100000000831117156100a257600080fd5b91908080601f016020809104026020016040519081016040528093929190818152602001838380828437600081840152601f19601f820116905080830192505050505050509192919290505050610179565b005b6100fe610308565b6040518080602001828103825283818151815260200191508051906020019080838360005b8381101561013e578082015181840152602081019050610123565b50505050905090810190601f16801561016b5780820380516001836020036101000a031916815260200191505b509250505060405180910390f35b7fb1a5fc168c026acfb50d8684803199dc53422383d6635a074402b33c17b2ee3833600083604051808473ffffffffffffffffffffffffffffffffffffffff16815260200180602001806020018381038352858181546001816001161561010002031660029004815260200191508054600181600116156101000203166002900480156102475780601f1061021c57610100808354040283529160200191610247565b820191906000526020600020905b81548152906001019060200180831161022a57829003601f168201915b5050838103825284818151815260200191508051906020019080838360005b83811015610281578082015181840152602081019050610266565b50505050905090810190601f1680156102ae5780820380516001836020036101000a031916815260200191505b509550505050505060405180910390a180600090805190602001906102d49291906103aa565b506001600081819054906101000a900461ffff1660010191906101000a81548161ffff021916908361ffff16021790555050565b606060008054600181600116156101000203166002900480601f0160208091040260200160405190810160405280929190818152602001828054600181600116156101000203166002900480156103a05780601f10610375576101008083540402835291602001916103a0565b820191906000526020600020905b81548152906001019060200180831161038357829003601f168201915b5050505050905090565b828054600181600116156101000203166002900490600052602060002090601f016020900481019282601f106103eb57805160ff1916838001178555610419565b82800160010185558215610419579182015b828111156104185782518255916020019190600101906103fd565b5b509050610426919061042a565b5090565b5b8082111561044357600081600090555060010161042b565b509056fea26469706673582212205a97e18891f992e738727e067be5aeb7ad4c442a8f620c1464a1fbdc34c55f0d64736f6c63430007000033",
  "immutableReferences": {},
  "source": "// SPDX-License-Identifier: MIT\npragma solidity >=0.4.22 <0.9.0;\n\ncontract Greetings {\n    string greeting = \"Default-Greeting-From-Solidity\";\n    uint16 count = 0;\n\n    function setGreeting(string memory _newGreeting) public {\n        emit NewGreetingEvent(msg.sender, greeting, _newGreeting);\n        greeting = _newGreeting;\n        ++count; \n    }\n\n    // update text\n    function getGreeting() public view returns (string memory) {\n        return greeting;\n    }\n\n    event NewGreetingEvent(address _sender, string _oldGreeting, string _newGreeting);\n}",
  "sourcePath": "/Users/malepatia/Workspace/vmware-blockchain-samples/vmbc-ethers-examples/contracts/Greetings.sol",
  "compiler": {
    "name": "solc",
    "version": "0.7.0+commit.9e61f92b.Emscripten.clang"
  },
  "schemaVersion": "3.4.9",
  "updatedAt": "2022-09-15T14:11:28.507Z",
  "networkType": "ethereum",
  "devdoc": {
    "kind": "dev",
    "methods": {},
    "version": 1
  },
  "userdoc": {
    "kind": "user",
    "methods": {},
    "version": 1
  }
}