{
  "contractName": "Identity",
  "abi": [
    {
      "inputs": [],
      "name": "memoryStored",
      "outputs": [
        {
          "internalType": "bytes",
          "name": "",
          "type": "bytes"
        }
      ],
      "stateMutability": "view",
      "type": "function"
    },
    {
      "inputs": [
        {
          "internalType": "bytes",
          "name": "data",
          "type": "bytes"
        }
      ],
      "name": "callDatacopy",
      "outputs": [
        {
          "internalType": "bytes",
          "name": "",
          "type": "bytes"
        }
      ],
      "stateMutability": "nonpayable",
      "type": "function"
    },
    {
      "inputs": [],
      "name": "getMemoryStored",
      "outputs": [
        {
          "internalType": "bytes",
          "name": "",
          "type": "bytes"
        }
      ],
      "stateMutability": "view",
      "type": "function"
    }
  ],
  "bytecode": "0x608060405234801561001057600080fd5b5061051b806100206000396000f3fe608060405234801561001057600080fd5b50600436106100415760003560e01c80631f1c0854146100465780633eef7311146100c9578063caa260321461014c575b600080fd5b61004e610280565b6040518080602001828103825283818151815260200191508051906020019080838360005b8381101561008e578082015181840152602081019050610073565b50505050905090810190601f1680156100bb5780820380516001836020036101000a031916815260200191505b509250505060405180910390f35b6100d1610322565b6040518080602001828103825283818151815260200191508051906020019080838360005b838110156101115780820151818401526020810190506100f6565b50505050905090810190601f16801561013e5780820380516001836020036101000a031916815260200191505b509250505060405180910390f35b6102056004803603602081101561016257600080fd5b810190808035906020019064010000000081111561017f57600080fd5b82018360208201111561019157600080fd5b803590602001918460018302840111640100000000831117156101b357600080fd5b91908080601f016020809104026020016040519081016040528093929190818152602001838380828437600081840152601f19601f8201169050808301925050505050505091929192905050506103c0565b6040518080602001828103825283818151815260200191508051906020019080838360005b8381101561024557808201518184015260208101905061022a565b50505050905090810190601f1680156102725780820380516001836020036101000a031916815260200191505b509250505060405180910390f35b606060008054600181600116156101000203166002900480601f0160208091040260200160405190810160405280929190818152602001828054600181600116156101000203166002900480156103185780601f106102ed57610100808354040283529160200191610318565b820191906000526020600020905b8154815290600101906020018083116102fb57829003601f168201915b5050505050905090565b60008054600181600116156101000203166002900480601f0160208091040260200160405190810160405280929190818152602001828054600181600116156101000203166002900480156103b85780601f1061038d576101008083540402835291602001916103b8565b820191906000526020600020905b81548152906001019060200180831161039b57829003601f168201915b505050505081565b606080825167ffffffffffffffff811180156103db57600080fd5b506040519080825280601f01601f19166020018201604052801561040e5781602001600182028036833780820191505090505b50905082518060208301826020870160045af461042757fe5b50806000908051906020019061043e929190610448565b5080915050919050565b828054600181600116156101000203166002900490600052602060002090601f016020900481019282601f1061048957805160ff19168380011785556104b7565b828001600101855582156104b7579182015b828111156104b657825182559160200191906001019061049b565b5b5090506104c491906104c8565b5090565b5b808211156104e15760008160009055506001016104c9565b509056fea264697066735822122018ccdaf30295465944b28feb1abb7fed535d87f2c7b13623b79ce70b208dc49764736f6c63430007000033",
  "immutableReferences": {},
  "source": "// SPDX-License-Identifier: MIT\npragma solidity >=0.4.22 <0.9.0;\ncontract Identity {\n    bytes public memoryStored;\n\n    function callDatacopy(bytes memory data) public returns (bytes memory) {\n        bytes memory result = new bytes(data.length);\n        assembly {\n            let len := mload(data)\n\n            // call : uses new storage context, msg.send will be the Identity contract msg.value will not be same as Identity value\n            // delegatecall; it uses current contracts storage, current msg.sender and current msg.value\n            // callcode is deprecated; use delegatecall instead\n            // official doc: https://docs.soliditylang.org/en/v0.8.14/introduction-to-smart-contracts.html?highlight=callcode#delegatecall-callcode-and-libraries\n            // memory layout: https://docs.soliditylang.org/en/v0.8.7/internals/layout_in_memory.html\n\n            //if iszero(call(gas(), 0x04, 0, add(data, 0x20), len, add(result,0x20), len)) {\n            //if iszero(delegatecall(gas(), 0x04, add(data, 0x20), len, add(result,0x20), len)) {\n            //if iszero(callcode(gas(), 0x04, 0, add(data, 0x20), len, add(result,0x20), len)) {\n            //if iszero(call(gas(), 0x04, 0, add(data, 0x20), len, add(result,0x20), len)) {\n            if iszero(\n                delegatecall(\n                    gas(),\n                    0x04,\n                    add(data, 0x20),\n                    len,\n                    add(result, 0x20),\n                    len\n                )\n            ) {\n                invalid()\n            }\n        }\n\n        memoryStored = result;\n\n        return result;\n    }\n\n    function getMemoryStored() public view returns (bytes memory) {\n        return memoryStored;\n    }\n}\n",
  "sourcePath": "/Users/malepatia/Workspace/vmware-blockchain-samples/vmbc-ethers-examples/contracts/Identity.sol",
  "compiler": {
    "name": "solc",
    "version": "0.7.0+commit.9e61f92b.Emscripten.clang"
  },
  "schemaVersion": "3.4.9",
  "updatedAt": "2022-09-15T14:11:10.434Z",
  "devdoc": {
    "kind": "dev",
    "methods": {},
    "version": 1
  },
  "userdoc": {
    "kind": "user",
    "methods": {},
    "version": 1
  }
}